:02009D00AA8235
:07009F00EA60357BC87C001C
:0E00A600C3E49B74808CF063F08095F05020D2
:0400B4007DC87E0085
:0E00B800C3E49D74808EF063F08095F05007D5
:0700C6001DBDFFEE1E80EBE3
:0700CD001BBBFFD51C80D214
:0300D4001A80C8C7
:0100D7002206
:0400D800AA82AB83CA
:0600DC00EA4B60187C28CD
:0E00E200C374808CF063F08095F050031C8096
:0100F000F11E
:0700F1001ABAFFE71B80E4CF
:0100F80022E5
:0900F900AA827527EE7528017535
:0601020029DE752A0275DA
:060108002BBE752C0375EF
:06010E002D7E752E157513
:060114002FED75300475AB
:06011A0031DD75320575B0
:0601200033BD75340675C5
:06012600357D75361675EB
:06012C0037EB7538077582
:0601320039DB753A087587
:060138003BBB753C09759C
:06013E003D7B753E1775C4
:060144003FE77540007565
:06014A0041D775420B7560
:0601500043B775440C7575
:060156004577754618759F
:07015C0047007548467B10C7
:0C016300EB20E716EB2BFC2427F8E6FD50
:0B016F00B50208EC242704F886822269
:03017A001B80E601
:04017D00758246221F
:020181007A08FA
:0E018300EA6013EAF4F590E590C4540FFBBB5C
:080191000F06EAC313FA80EA2D
:08019900AA907590F08A822201
:0E01A100C2B2C2B0D2B175A0FFD2B220A7F296
:0301AF00C2B222B7
:0E01B200AA82C0021201A1D002EA24FF92B07C
:0A01C000C2B18508A0D2B2C2B2227B
:0901CA00AA827B10BA66027B18C0
:0C01D300C374808509F063F08095F05043
:0701DF0006EB2404FB80067F
:0601E600C3E49509F509D0
:0201EC00AA095E
:0C01EE00EA60138B08758200C002C00399
:0A01FA001201B2D003D0021A80EA0D
:0102040022D7
:0A020500AA82E50A600474402AFA98
:0B020F0074802AF5087582000201B21D
:09021A007508017582000201B2B1
:08022300AA82AB83ACF07D0060
:0E022B00ED2AFEE43BFF8C008E828F8388F06C
:0C02390012090EFE601B8E08758201C0C9
:0E02450002C003C004C0051201B2D005D004EF
:07025300D003D0020D80D1A1
:01025A002281
:0A025B00AA82AB83ACF0850C0A8583
:0C0265000B82C002C003C004120205D0CE
:0702710004D003D0027D0060
:0E027800ED2AFEE43BFF8C008E828F8388F01F
:0C02860012090EFE601B8E08758201C07C
:0E02920002C003C004C0051201B2D005D004A2
:0702A000D003D0020D80D154
:0102A7002234
:0902A8008582087582010201B291
:0602B100AA82850E0A85F9
:0A02B7000D82C002120205D0028A77
:0702C100087582010201B281
:0802C80085821185831285F087
:0402D00013F514AE60
:0102D4000F1A
:0802D50085100A8E82C006129A
:0702DD00020575270AE4F594
:0402E40028F529F5DB
:0502E8002A851182854A
:0602ED0012838513F0E509
:0A02F3001412086DAF8274302FF56D
:0B02FD00087582011201B2D0061E75C8
:06030800270AE4F528F5C8
:04030E0029F52A851E
:06031200118285128385B3
:0703180013F0E514C006120A
:07031F0008BC8582118583F3
:050326001285F013F543
:08032B0014D006E511700CE589
:08033300127008E5137004E5E7
:03033B0014600249
:02033E008095A8
:04034000050F851010
:050344000A850F820292
:020349000205AB
:0A034B0075083C7582001201B275BE
:0903550008067582001201B27560
:09035E00080E7582001201B212B2
:09036700021A75080275820002F9
:0203700001B2D8
:0400000002002332A5
:01000B0032C2
:0100130032BA
:03001B000205EDEE
:07007C00751500E4F516F50F
:0400830017F518F560
:0500870019751A017556
:06008C001BE8751C037562
:060092001D00751E007543
:020098001F0542
:03009A0002001E43
:05001E0012063880FE0F
:070372007520007521FF75E5
:0603790022FF12034B12EB
:06037F00044E85218D856E
:0C038500228B758910D2AFD2ABD28E2231
:070391007401B51502801094
:070398007402B5150280217B
:08039F007403B5150302043ECE
:0103A7002233
:0803A800151674FFB5160C15C3
:0503B00017B517071549
:0503B50018B518021547
:0103BA001929
:0503BB00AA168A1A22B7
:0403C00085161B85FE
:0303C400171C857E
:0303C700181D8579
:0303CA00191EE514
:0703CD0017A2E7C51633C5B6
:0803D4001633A2E7C51633C57C
:0703DC001633C5165403F5AA
:0403E30017E51825DD
:0603E7001825E04517F5A2
:0603ED0017E519A2E7C5A7
:0803F3001833C51833A2E7C559
:0603FB001833C51833C5DC
:0804010018540330E10244FC31
:08040900F51974FFC39516F507
:060411001674FF9517F5BB
:0504170017E49518F543
:05041C0018E49519F53C
:0604210019742A2516F5EE
:0504270016E43517F595
:05042C0017E43518F58E
:0504310018E43519F587
:030436001985160F
:0304390022851702
:02043C0021227B
:0A043E00AA16EAF51F030354C0F5E7
:0604480080C2B3D2B32212
:0A044E0012021AE51524FC50030207
:0204580005E7B6
:05045A00E51525152544
:05045F00159004647318
:070464000204700204F00223
:05046B0005810205B54A
:07047000AA1ABA0002800A7B
:05047700BA010280162D
:05047C00BA02338022EA
:07048100750B00750C0090E3
:0A04880009EE75F08012025B80207F
:07049200750B00750C0090D2
:0A04990009FF75F08012025B800F6E
:0704A300750B00750C0090C1
:0804AA000A1075F08012025BDC
:0A04B200AA1F7B007C007D00750F7F
:0C04BC000C7510008A828B838CF0ED120E
:0604C80002C8750B00756F
:0904CE000C01900A2175F0801266
:0604D700025B750F0875C1
:0604DD001001851B828561
:0604E3001C83851DF0E5FD
:0504E9001E1202C80212
:0204EE0005E720
:0704F000750B00750C009074
:0B04F7000A2E75F08012025B7401B544
:08050200160EE4B5170AE4B57A
:08050A001806E4B5190280286F
:0A0512007402B5160EE4B5170AE4F2
:09051C00B51806E4B519028027A8
:0A0525007403B5160EE4B5170AE4DE
:09052F00B51806E4B51902802696
:0205380080360B
:07053A00750B00750C019028
:090541000A3A75F08012025B0217
:02054A0005E7C3
:07054C00750B00750C019016
:090553000A4475F08012025B02FB
:02055C0005E7B1
:07055E00750B00750C019004
:090565000A4E75F08012025B02DF
:02056E0005E79F
:07057000750B00750C0190F2
:0A0577000A5875F08012025B8066DE
:07058100750B00750C0090E2
:090588000A6A75F08012025B752D
:060591000B0D750C01903A
:090597000A7975F08012025B750F
:0605A0000F0C751001852F
:0605A60016828517838513
:0505AC0018F0E5191232
:0405B10002C88032CA
:0705B500750B00750C0090AE
:0905BC000A7D75F08012025B75E6
:0605C5000B0D750C019006
:0905CB000A8C75F08012025B75C8
:0605D4000F0C75100185FB
:0605DA00168285178385DF
:0505E00018F0E51912FE
:0205E50002C84A
:0605E70075820102009D77
:0E05ED00C0E0C082C083C002C003C004C0D002
:0A05FB0075D000E51A030354C02474
:070605002EFAE43409FBACFE
:0A060C00200520EC2AF582E43BF5FE
:0B06160083E493F5807440B520037569
:020621002000B7
:0A06230085218D85228BD0D0D004F4
:0B062D00D003D002D083D082D0E03296
:0306380012037238
:0D063B001201811200F9AA82BA460280F372
:0C064800EA24EB5013C28EEA24ECF515F6
:06065400E4F516F517F5B0
:04065A0018F5190274
:02065E00070B88
:0E066000EA24F55021EA24F5FA600312039112
:06066E00E4F516F517F596
:0406740018F519F567
:080678001512044E75820112F7
:06068000009DD28E80B542
:07068600E515700302070BEC
:08068D007401B5150D8A167504
:0606950017007518007546
:04069B001900806C56
:0A069F00C3749F95167486951774B6
:0A06A90001951874808519F063F0C4
:0E06B3008095F0500A7B007C007D007E008068
:0106C10041F7
:0606C2007B008516278570
:0306C8001728856B
:0306CB0018298566
:0A06CE00192A90000AE4F5F0C002BA
:0A06D800C0031207FF85822385830B
:0506E2002485F025F560
:0C06E70026D003D002EBFF3395E0F8F9B9
:0906F300E5232AFBE5243FFCE5A8
:0706FC002538FDE52639FE5B
:050703008B168C178D20
:03070800188E192F
:0A070B0012044E75820112009D02D7
:02071500063BA1
:0E092E00808D99A5B1BDC8D2DBE4EBF1F7FBDB
:0E093C00FE0000FFFDFAF5F0E9E1D9CFC5BAE3
:0E094A00AEA296897D7064574C40362C231A5D
:0E095800130D08040200000104070C121921FF
:0E0966002A343E4955616D7A00000000000001
:0E097400000000000000000000000000000075
:0E098200000000000000000000000000FFFF69
:0E099000FFFFFFFFFFFFFFFFFFFFFFFFFFFF67
:0E099E00FFFFFFFFFFFFFFFFFFFFFFFFFFFF59
:0E09AC00FFFF0004080C1014181C2024282C37
:0E09BA003034383C4044484C5054585C606423
:0E09C800686C7074787C8084888C9094989C05
:0E09D600A0A4A8ACB0B4B8BCC0C4C8CCD0D4E7
:0A09E400D8DCE0E4E8ECF0F4F8FCE5
:0E09EE0053696E6520202020413D20202056B8
:0309FC006F6C001D
:0E09FF005265637420202020413D20202056A8
:030A0D006F6C000B
:0E0A10005472696120202020413D2020205694
:030A1E006F6C00FA
:0D0A2100433D202020202020202075530080
:0C0A2E00576176652053656C65637400A9
:0A0A3A0053696E6520576176650070
:0A0A44005265637420576176650067
:0A0A4E00547269612057617665005B
:0E0A5800312E53696E20322E52656320332EEC
:040A6600547269005D
:0E0A6A004379636C65202053657474696E6770
:010A7800007D
:040A79002075530091
:0E0A7D00416D706C65202053657474696E675E
:010A8B00006A
:040A8C00566F6C0035
:06071700F9E52745284525
:08071D0029452A60777800C32A
:0A07250008E52A20E73BE52725E060
:06072F00F527E52833F573
:0507350028E52933F561
:05073A0029E52A33F55A
:08073F002AE5829527E5839568
:0707470028E5F09529E99572
:08074E002A50D4C3E52A13F57B
:050756002AE52913F55E
:05075B0029E52813F55B
:0507600028E52713F558
:01076500276C
:0A076600E5829527FCE5839528FD48
:0A077000E5F09529FEE9952A4007FF
:07077A00F98EF08D838C82E3
:07078100C3E52A13F52AE588
:050788002913F529E52D
:05078D002813F528E52A
:070792002713F527D8CEE97B
:01079900223D
:08079A00FB7A20E4FCFDFEFFE8
:0E07A200E5822582F582E58333F583E5F033A9
:0B07B000F5F0EB33FB4017DAE9804264
:0E07BB00E5822582F582E58333F583E5F03390
:0507C900F5F0EB33FB2D
:0E07CE00EC33FCED33FDEE33FEEF33FFEC9524
:0607DC0027ED9528EE95C3
:0807E20029EF952A4013EC9564
:0807EA0027FCED9528FDEE95BA
:0907F20029FEEF952AFF43820164
:0207FB00DABE64
:0207FD00EB22ED
:06005200E478FFF6D8FD82
:080030007900E94400601B7A2D
:0500380000900A907821
:03003D000075A0AB
:0A00400000E493F2A308B8000205E3
:08004A00A0D9F4DAF275A0FF61
:0C07FF00AAF0FBE5828527F0A4FCADF019
:0C080B00E5838527F0A42DFDE435F0FE08
:0C081700E5828528F0A42DFDE5F03EFEF2
:0C082300E433FFEA8527F0A42EFEE5F088
:0C082F003FFFE5838528F0A42EFEE5F0D5
:0C083B003FFFE5828529F0A42EFEE5F0C9
:0B0847003FFFEB8527F0A42FFFEA85A0
:0A08520028F0A42FFFE5838529F0AC
:0C085C00A42FFFE582852AF0A42F8EF067
:050868008D838C82224B
:0400580075A0007817
:07005C0000E8440060077991
:0600630000E4F309D8FCE3
:080069007800E84400600C7906
:0B00710000900000E4F0A3D8FCD9FAD6
:0E086D00F9C2D530E715D2D5E4C39582F582E5
:0D087B00E49583F583E495F0F5F0E499F938
:0A088800E52A30E715E4C39527F5D3
:0508920027E49528F5A4
:0508970028E49529F59D
:05089C0029E4952AF596
:0108A1002A2C
:0E08A200E912071730D512E4C39582F582E4FF
:0B08B0009583F583E495F0F5F0E499E2
:0108BB00221A
:0E08BC00FBC2D530E715D2D5E4C39582F58294
:0D08CA00E49583F583E495F0F5F0E49BFBE5
:0A08D700E52A30E717B2D5E4C39517
:0508E10027F527E49556
:0508E60028F528E4954F
:0508EB0029F529E49548
:0308F0002AF52ABC
:0E08F300EB12079A30D513FBE4C39582F58211
:0C090100E49583F583E495F0F5F0E49BA9
:01090D0022C7
:030023007581489C
:0A00260012092AE582600302001EA1
:0E090E0020F71430F6148883A88220F507E63F
:06091C00A8837583002290
:03092200E280F779
:03092500E4932236
:02092800E022CB
:04092A0075820022B0
:00000001FF
