:0600000002000B0200E506
:1000640075210075225775236575246C7525637594
:10007400266F75276D752865752920752A74752B6B
:100084006F752C20752D75752E73752F6575302041
:1000940075312175323E75333E75344D7535617554
:1000A4003664753765753820753969753A6E753BF0
:1000B40020753C53753D57753E55753F4E75403C14
:1000C40075413CE4F542F543F544F5457546017543
:1000D40047E8754803754900754A00754B050200E9
:0100E4000615
:050006001203F680FE6C
:1000E500C020C0E0C0F0C082C083C002C003C0040D
:1000F500C005C006C007C000C001C0D075D0001241
:1001050004C512043DE582FAF54C3395E0F54DC37F
:10011500740A954C7480854DF063F08095F05033EA
:10012500E521FC3395E0FDECB54C06EDB54D0280BF
:100135001C854C217463B54C06E4B54D02800280E4
:1001450003120202E4F542F543F544F54512025067
:100155000201DCE52170030201DC7477B52110850D
:100165004C42E54DF5433395E0F544F5458065C3CF
:1001750074FF954274C99543749A954474BB85453B
:10018500F063F08095F0500A7C007D007E007F00D2
:10019500803A85425785435885445985455A90008C
:1001A5000AE4F5F01207DC85824E85834F85F05011
:1001B500F551AA4CE54DFB3395E0F8F9E54E2AFCDF
:1001C500E54F3BFDE55038FEE55139FF8C428D4347
:1001D5008E448F4512030112022C7582011204020E
:1001E500D0D0D001D000D007D006D005D004D003A0
:1001F500D002D083D082D0F0D0E0D020327461B567
:100205002102801E7466B52102800A7477B5211615
:10021500AA428A4622854247854348854449854501
:100225004A22AA428A4B22750A0075820012055994
:1002350090002275F040120577750A01758200124B
:10024500055990003275F0400205777461B52102B9
:1002550080567466B5210280377477B521028018FF
:1002650075570090090B75F0801202C575570190FE
:10027500091C75F0800202C575570090092D75F0AF
:10028500801202C575570190093E75F0800202C5BE
:1002950075570090094F75F0801202C5755701908A
:1002A500096075F0800202C575570090097175F0F7
:1002B500801202C575570190098275F0800202C54A
:1002C500AA82AB83ACF0E557C454F02422FDE4F5D3
:1002D50058F559E5582DF88A828B838CF01208EB76
:1002E500FEA3AA82AB83A6060558E4B558020559B4
:1002F5008A828B838CF01208EB70D8228542538555
:1003050043548544558545567477B52102800302CB
:1003150003757401B5420EE4B5430AE4B54406E439
:10032500B5450280277402B5420EE4B5430AE4B52B
:100335004406E4B5450280207403B5420EE4B54396
:100345000AE4B54406E4B5450280192275570190C3
:10035500099375F0800202C57557019009A475F0DF
:10036500800202C57557019009B575F0800202C576
:100375007E00C3EE6480948B5009EE2432F876201B
:100385000E80EF8E52E553455445554556604EE572
:10039500522432F875570AE4F558F559F55A85533C
:1003A500828554838555F0E556C00012084AAF8210
:1003B500D00074302FF675570AE4F558F559F55AFB
:1003C5008553828554838555F0E5561208998582B3
:1003D5005385835485F055F556155280A822D2A829
:1003E500C2AAC2A9C2ABC2ACD2B8C2B9C28AD2AF84
:0D03F5002212069F1203E37590F002022C05
:10090B0057656C636F6D6520746F2075736520215F
:10091B00003E3E4D61646520696E205357554E3C39
:10092B003C003D57617665205479706520205365F6
:10093B00743D00312E73696E20322E66616E20334A
:10094B002E7472003D4672657175656E636520206D
:10095B005365743D002020202020202020202020C3
:10096B0030204B487A003D416D706C69747564653D
:10097B0020205365743D00202020202020202020A3
:10098B0020203020566F6C00312E53696E202020B2
:10099B00202020202020202000322E46726571203E
:1009AB0020202020202020202000332E547269206C
:0B09BB002020202020202020202000F1
:10040200AA82EA60357BC87C00C3E49B74808CF0CE
:1004120063F08095F050207DC87E00C3E49D748017
:100422008EF063F08095F050071DBDFFEE1E80EB4D
:100432001BBBFFD51C80D21A80C822AA827557EE38
:100442007558017559DE755A02755BBE755C037588
:100452005D7E755E77755FED7560067561DD75624F
:10046200057563BD75640475657D7566667567EBB4
:100472007568077569DB756A08756BBB756C0975FC
:100482006D7B756E61756FE775700A7571D77572E0
:10049200007573B7757463757577757673757700C4
:1004A2007578427B10EB20E716EB2BFC2457F8E61D
:1004B200FDB50208EC245704F88682221B80E675FB
:1004C2008200227A08EA6023EAF4F590E590C454A7
:1004D2000FFBBB0F16C2D575F002EA30E704B2D5A6
:1004E200F4048430D502F404FA80DAAA907590F00C
:1004F2008A8222C2A2C2A0D2A17580FFD2A2208784
:10050200F2C2A222AA82C0021204F5D002EA24FF99
:1005120092A0C2A1850880D2A2C2A222AA827B1086
:10052200BA66027B18C374808509F063F08095F087
:100532005006EB2404FB8006C3E49509F509AA09D9
:10054200EA60138B08758200C002C003120506D050
:1005520003D0021A80EA22AA82E50A600474402AC1
:10056200FA74802AF508758200020506750801757D
:100572008200020506AA82AB83ACF07D00ED2AFE62
:10058200E43BFF8C008E828F8388F01208EBFE60C2
:100592001B8E08758201C002C003C004C00512058B
:1005A20006D005D004D003D0020D80D122AA82AB9E
:1005B20083ACF0850C0A850B82C002C003C0041212
:1005C2000559D004D003D0027D00ED2AFEE43BFFA2
:1005D2008C008E828F8388F01208EBFE601B8E08DF
:1005E200758201C002C003C004C005120506D00511
:1005F200D004D003D0020D80D122858208758201F9
:10060200020506AA82850E0A850D82C002120559CC
:10061200D0028A087582010205068582118583123D
:1006220085F013F514AE0F85100A8E82C0061205EE
:100632005975570AE4F558F559F55A85118285120C
:10064200838513F0E51412084AAF8274302FF5083F
:10065200758201120506D0061E75570AE4F558F593
:1006620059F55A8511828512838513F0E514C00667
:1006720012089985821185831285F013F514D0062C
:10068200E511700CE5127008E5137004E5146002C0
:100692008095050F85100A850F8202055975083C61
:1006A2007582001205067508067582001205067528
:1006B200080F75820012050612056E750802758212
:1006C20000120506750D01750E01758241120605AF
:1006D200750B00750C009009C675F0801205AF7598
:1006E2000F0D7510019002D275F096744912061C16
:0206F20080FE88
:0809C6004368696E61205500D1
:1006F400F9E55745584559455A60777800C308E5E8
:100704005A20E73BE55725E0F557E55833F558E51A
:100714005933F559E55A33F55AE5829557E58395EA
:1007240058E5F09559E9955A50D4C3E55A13F55A4A
:10073400E55913F559E55813F558E55713F557E5F9
:10074400829557FCE5839558FDE5F09559FEE995AA
:100754005A4007F98EF08D838C82C3E55A13F55AFB
:10076400E55913F559E55813F558E55713F557D8D6
:10077400CEE922FB7A20E4FCFDFEFFE5822582F52A
:1007840082E58333F583E5F033F5F0EB33FB401773
:10079400DAE98042E5822582F582E58333F583E553
:1007A400F033F5F0EB33FBEC33FCED33FDEE33FECD
:1007B400EF33FFEC9557ED9558EE9559EF955A4068
:1007C40013EC9557FCED9558FDEE9559FEEF955AAF
:0807D400FF438201DABEEB22B3
:06003A00E478FFF6D8FD9A
:100018007900E94400601B7A009009CE780075A049
:1000280000E493F2A308B8000205A0D9F4DAF27547
:02003800A0FF27
:1007DC00AAF0FBE5828557F0A4FCADF0E5838557C4
:1007EC00F0A42DFDE435F0FEE5828558F0A42DFD36
:1007FC00E5F03EFEE433FFEA8557F0A42EFEE5F06B
:10080C003FFFE5838558F0A42EFEE5F03FFFE5821F
:10081C008559F0A42EFEE5F03FFFEB8557F0A42F91
:10082C00FFEA8558F0A42FFFE5838559F0A42FFF2C
:0E083C00E582855AF0A42F8EF08D838C8222E7
:100040007800E84400600A790075A000E4F309D85C
:10005000FC7800E84400600C7900900000E4F0A314
:04006000D8FCD9FAF5
:10084A00F9C2D530E715D2D5E4C39582F582E4958D
:10085A0083F583E495F0F5F0E499F9E55A30E71564
:10086A00E4C39557F557E49558F558E49559F55961
:10087A00E4955AF55AE91206F430D512E4C3958282
:10088A00F582E49583F583E495F0F5F0E49922FB8B
:10089A00C2D530E715D2D5E4C39582F582E49583B3
:1008AA00F583E495F0F5F0E49BFBE55A30E717B2DF
:1008BA00D5E4C39557F557E49558F558E49559F595
:1008CA0059E4955AF55AEB12077730D513FBE4C36E
:1008DA009582F582E49583F583E495F0F5F0E49B3F
:0108EA0022EB
:0D000B00758178120907E582600302000686
:1008EB0020F71430F6148883A88220F507E6A88336
:1008FB0075830022E280F7E49322E02275820022C6
:00000001FF
