:0600000002000B0200EB00
:0700640075210075222075D3
:06006B002320752420751E
:0600710025207526207514
:0600770027577528617592
:06007D002976752A657565
:060083002B3B752C4675B5
:060089002D3D752E2075CF
:06008F002F2075302075E2
:06009500312075322075D8
:06009B00334B753448757B
:0600A100357A75363B754F
:0600A700374175383D757C
:0600AD003920753A2075B0
:0600B3003B20753C567570
:0600B9003D6F753E6C7501
:0600BF003F207540207592
:0600C500412075420075A8
:0600CB004800E4F549F5D0
:0400D1004AF54BF5AC
:0500D5004C754D0175A2
:0600DA004EE8754F0375AE
:0600E0005000755100758F
:0200E6005205C1
:0300E8000200060D
:050006001203FA80FE68
:0C00EB00C020C0E0C0F0C082C083C00292
:0E00F700C003C004C005C006C007C000C001A1
:0E010500C0D075D0001204EC120464E582FA3A
:0A011300F5533395E0F554C3740A68
:0A011D00955374808554F063F08060
:0A01270095F0502DE55324ECF5533C
:09013100E55434FFF5547404B5E3
:08013A005306E4B554028002F3
:02014200800536
:050144001201FF800321
:03014900855321BA
:06014C00E4F549F54AF557
:040152004BF54C021B
:0201560001D9CD
:07015800E52170030201D94B
:07015F007401B52110855366
:0401660049E554F51E
:07016A004A3395E0F54BF567
:030171004C80655A
:0A017400C374FF954974C9954A74DD
:0A017E009A954B74BB854CF063F0BA
:0E0188008095F0500A7C007D007E007F008094
:010196003A2E
:0401970085495985B8
:03019B004A5A8538
:03019E004B5B8533
:0901A1004C5C90000AE4F5F01238
:0701AA0007D585825585830E
:0501B1005685F057F532
:0401B60058AA53E50B
:0A01BA0054FB3395E0F8F9E5552AEF
:0A01C400FCE5563BFDE55738FEE56B
:0301CE005839FF9E
:0501D1008C498D4A8EEF
:0301D6004B8F4C00
:0E01D900120230758201120408D0D0D001D07D
:0E01E70000D007D006D005D004D003D002D03F
:0A01F50083D082D0F0D0E0D0203299
:0701FF007401B52102800E1E
:070206007402B52102800D16
:07020D007403B5211A8014EF
:06021400AA498A4D801288
:04021A0085494E853F
:03021E004A4F85BF
:030221004B5085BA
:040224004C518004B5
:04022800AA498A5203
:04022C007521002216
:07023000750B00750C009036
:09023700090475F0801205D6756A
:060240000B00750C01909B
:0A024600090475F0801205D6E4B536
:040250002102801BEC
:080254007401B521030202EC64
:08025C007402B5210302037DC9
:080264007403B521030203B18C
:03026C000203E3A7
:07026F00AA4DBA020280054E
:05027600BA0324801111
:07027B00750B00750C0090EB
:0A028200091575F0801205D68020E2
:07028C00750B00750C0090DA
:0A029300092675F0801205D6800FD1
:07029D00750B00750C0090C9
:0802A400093775F0801205D640
:0702AC00750B00750C0190B9
:0902B300094875F0801205D6AA75
:0A02BC0052E5523395E0FBFCFD759E
:0A02C6000F0C7510008A828B838CE8
:0902D000F0ED120643750F0875EC
:0602D9001001854E828534
:0602DF004F838550F0E59D
:0502E500511206430266
:0202EA0003E32C
:0702EC00750B00750C00907A
:0B02F300095575F0801205D67401B5A6
:0802FE00490EE4B54A0AE4B51B
:080306004B06E4B54C0280280F
:0A030E007402B5490EE4B54A0AE492
:09031800B54B06E4B54C02802748
:0A0321007403B5490EE4B54A0AE47E
:09032B00B54B06E4B54C02802636
:02033400803611
:07033600750B00750C01902E
:09033D00096175F0801205D60279
:0203460003E3CF
:07034800750B00750C01901C
:09034F00096B75F0801205D6025D
:0203580003E3BD
:07035A00750B00750C01900A
:09036100097575F0801205D60241
:02036A0003E3AB
:07036C00750B00750C0190F8
:0A037300097F75F0801205D6806640
:07037D00750B00750C0090E8
:09038400099175F0801205D6758F
:06038D000B0D750C019040
:09039300099F75F0801205D67572
:06039C000F0C7510018535
:0603A2004982854A8385B3
:0503A8004BF0E54C12D2
:0403AD000643803251
:0703B100750B00750C0090B4
:0903B80009A375F0801205D67549
:0603C1000B0D750C01900C
:0903C70009B175F0801205D6752C
:0603D0000F0C7510018501
:0603D6004982854A83857F
:0503DC004BF0E54C129E
:0203E1000643D1
:0403E3007548002237
:0E03E700D2A8C2AAC2A9C2ABC2ACD2B8C2B9D7
:0503F500C28AD2AF2214
:0A03FA001206C61203E77590F01218
:020404000230C4
:0204060080FE76
:0E090400202020202020202020202020202025
:03091200202000A2
:0E0915005265637420202020413D2020205692
:030923006F6C00F6
:0E0926005472696120202020413D202020567F
:030934006F6C00E5
:0E09370073696E6520202020413D202020564F
:030945006F6C00D4
:0D094800463D202020202020204B487A0032
:0C095500576176652053656C6563740083
:0A09610053696E652057617665004A
:0A096B004465636F20576176650054
:0A0975005472696120576176650035
:0E097F00312E53696E20322E44656320332ED4
:04098D005472690037
:0E0991004672657175656E636520536574006E
:04099F004B487A0047
:0E09A300416D706C652053657474696E670059
:0409B100566F6C0011
:02040800AA82C6
:07040A00EA60357BC87C00AD
:0E041100C3E49B74808CF063F08095F0502063
:04041F007DC87E0016
:0E042300C3E49D74808EF063F08095F0500766
:070431001DBDFFEE1E80EB74
:070438001BBBFFD51C80D2A5
:03043F001A80C858
:010442002297
:04044300AA82AB835B
:06044700EA4B60187C285E
:0E044D00C374808CF063F08095F050031C8027
:01045B00F1AF
:07045C001ABAFFE71B80E460
:010463002276
:09046400AA827559EE755A017562
:06046D005BDE755C027508
:060473005DBE755E03751D
:060479005F7E7560157541
:06047F0061ED75620675D7
:0604850063DD75640575DE
:06048B0065BD75660475F5
:06049100677D7568167519
:0604970069EB756A0775B0
:06049D006BDB756C0875B5
:0604A3006DBB756E0975CA
:0604A9006F7B75701775F2
:0604AF0071E775720A7589
:0604B50073D77574007599
:0604BB0075B7757614759B
:0604C100777775781875CD
:0704C7007900757A427B10F9
:0C04CE00EB20E716EB2BFC2459F8E6FDB0
:0B04DA00B50208EC245904F8868222C9
:0304E5001B80E693
:0404E80075820022F7
:0204EC007A088C
:0E04EE00EA6023EAF4F590E590C4540FFBBBDE
:0E04FC000F16C2D575F002EA30E704B2D5F44F
:01050A0004EC
:06050B008430D502F40467
:03051100FA80DA93
:08051400AA907590F08A822282
:0E051C00C2B7C2B5D2B67580FFD2B72087F243
:03052A00C2B72233
:0E052D00AA82C00212051CD002EA24FF92B579
:0A053B00C2B6850880D2B7C2B7220D
:09054500AA827B10BA66027B1841
:0C054E00C374808509F063F08095F050C4
:07055A0006EB2404FB800600
:06056100C3E49509F50951
:02056700AA09DF
:0C056900EA60138B08758200C002C0031A
:0A05750012052DD003D0021A80EA0F
:01057F002259
:0A058000AA82E50A600474402AFA1A
:0B058A0074802AF50875820002052D20
:0905950075080175820002052DB4
:08059E00AA82AB83ACF07D00E2
:0E05A600ED2AFEE43BFF8C008E828F8388F0EE
:0C05B4001208E4FE601B8E08758201C076
:0E05C00002C003C004C00512052DD005D004F2
:0705CE00D003D0020D80D123
:0105D5002203
:0A05D600AA82AB83ACF0850C0A8505
:0C05E0000B82C002C003C004120580D0D2
:0705EC0004D003D0027D00E2
:0E05F300ED2AFEE43BFF8C008E828F8388F0A1
:0C0601001208E4FE601B8E08758201C028
:0E060D0002C003C004C00512052DD005D004A4
:07061B00D003D0020D80D1D5
:0106220022B5
:0906230085820875820102052D93
:06062C00AA82850E0A857A
:0A0632000D82C002120580D0028A7A
:07063C000875820102052D83
:0806430085821185831285F008
:04064B0013F514AEE1
:01064F000F9B
:0806500085100A8E82C006121B
:07065800058075590AE4F565
:04065F005AF55BF5F8
:050663005C8511828599
:0606680012838513F0E58A
:0A066E0014120843AF8274302FF518
:0B0678000875820112052DD0061E75CA
:06068300590AE4F55AF5E6
:040689005BF55C853C
:06068D0011828512838535
:0706930013F0E514C006128C
:07069A00089285821185839F
:0506A1001285F013F5C5
:0806A60014D006E511700CE50B
:0806AE00127008E5137004E569
:0306B600146002CB
:0206B90080952A
:0406BB00050F851092
:0506BF000A850F820214
:0206C4000580AF
:0A06C60075083C75820012052D75C1
:0906D000080675820012052D7563
:0906D900080F75820012052D12B4
:0906E200059575080275820002FD
:0206EB00052DDB
:0606ED00F9E559455A45EC
:0806F3005B455C60777800C3F1
:0A06FB0008E55C20E73BE55925E027
:06070500F559E55A33F539
:05070B005AE55B33F527
:050710005BE55C33F520
:080715005CE5829559E583952E
:07071D005AE5F0955BE99538
:080724005C50D4C3E55C13F541
:05072C005CE55B13F524
:050731005BE55A13F521
:050736005AE55913F51E
:01073B005964
:0A073C00E5829559FCE583955AFD0E
:0A074600E5F0955BFEE9955C4007C5
:07075000F98EF08D838C820D
:07075700C3E55C13F55CE54E
:05075E005B13F55BE5F3
:050763005A13F55AE5F0
:070768005913F559D8CEE941
:01076F002267
:08077000FB7A20E4FCFDFEFF12
:0E077800E5822582F582E58333F583E5F033D3
:0B078600F5F0EB33FB4017DAE980428E
:0E079100E5822582F582E58333F583E5F033BA
:05079F00F5F0EB33FB57
:0E07A400EC33FCED33FDEE33FEEF33FFEC954E
:0607B20059ED955AEE9589
:0807B8005BEF955C4013EC952A
:0807C00059FCED955AFDEE9580
:0907C8005BFEEF955CFF4382012A
:0207D100DABE8E
:0207D300EB2217
:06003A00E478FFF6D8FD9A
:080018007900E94400601B7A45
:05002000009009B57815
:030025000075A0C3
:0A00280000E493F2A308B8000205FB
:08003200A0D9F4DAF275A0FF79
:0C07D500AAF0FBE5828559F0A4FCADF011
:0C07E100E5838559F0A42DFDE435F0FE01
:0C07ED00E582855AF0A42DFDE5F03EFEEB
:0C07F900E433FFEA8559F0A42EFEE5F081
:0C0805003FFFE583855AF0A42EFEE5F0CD
:0C0811003FFFE582855BF0A42EFEE5F0C1
:0B081D003FFFEB8559F0A42FFFEA8598
:0A0828005AF0A42FFFE583855BF072
:0C083200A42FFFE582855CF0A42F8EF05F
:05083E008D838C822275
:080040007800E84400600A7931
:030048000075A0A0
:06004B0000E4F309D8FCFB
:080051007800E84400600C791E
:0B00590000900000E4F0A3D8FCD9FAEE
:0E084300F9C2D530E715D2D5E4C39582F5820F
:0D085100E49583F583E495F0F5F0E499F962
:0A085E00E55C30E715E4C39559F599
:0508680059E4955AF56A
:05086D005AE4955BF563
:050872005BE4955CF55C
:010877005C24
:0E087800E91206ED30D512E4C39582F582E454
:0B0886009583F583E495F0F5F0E4990C
:010891002244
:0E089200FBC2D530E715D2D5E4C39582F582BE
:0D08A000E49583F583E495F0F5F0E49BFB0F
:0A08AD00E55C30E717B2D5E4C3950F
:0508B70059F559E4951C
:0508BC005AF55AE49515
:0508C1005BF55BE4950E
:0308C6005CF55C82
:0E08C900EB12077030D513FBE4C39582F58265
:0C08D700E49583F583E495F0F5F0E49BD4
:0108E30022F2
:03000B0075817A82
:0A000E00120900E5826003020006FB
:0E08E40020F71430F6148883A88220F507E66A
:0608F200A88375830022BB
:0308F800E280F7A4
:0308FB00E4932261
:0208FE00E022F6
:0409000075820022DA
:00000001FF
