:0600000002000B0200E506
:1000640075210075225775236575246C7525637594
:10007400266F75276D752865752920752A74752B6B
:100084006F752C20752D75752E73752F6575302041
:1000940075312175323E75333E75344D7535617554
:1000A4003664753765753820753969753A6E753BF0
:1000B40020753C53753D57753E55753F4E75403C14
:1000C40075413CE4F542F543F544F5457546017543
:1000D40047E8754803754900754A00754B050200E9
:0100E4000615
:050006001203F680FE6C
:1000E500C020C0E0C0F0C082C083C002C003C0040D
:1000F500C005C006C007C000C001C0D075D0001241
:1001050004C512043DE582FAF54C3395E0F54DC37F
:10011500740A954C7480854DF063F08095F05033EA
:10012500E521FC3395E0FDECB54C06EDB54D0280BF
:100135001C854C217463B54C06E4B54D02800280E4
:1001450003120202E4F542F543F544F54512025067
:100155000201DCE52170030201DC7477B52110850D
:100165004C42E54DF5433395E0F544F5458065C3CF
:1001750074FF954274C99543749A954474BB85453B
:10018500F063F08095F0500A7C007D007E007F00D2
:10019500803A85425785435885445985455A90008C
:1001A5000AE4F5F012079585824E85834F85F05058
:1001B500F551AA4CE54DFB3395E0F8F9E54E2AFCDF
:1001C500E54F3BFDE55038FEE55139FF8C428D4347
:1001D5008E448F4512030112022C7582011204020E
:1001E500D0D0D001D000D007D006D005D004D003A0
:1001F500D002D083D082D0F0D0E0D020327461B567
:100205002102801E7466B52102800A7477B5211615
:10021500AA428A4622854247854348854449854501
:100225004A22AA428A4B22750A0075820012055994
:1002350090002275F040120577750A01758200124B
:10024500055990003275F0400205777461B52102B9
:1002550080567466B5210280377477B521028018FF
:100265007557009008C475F0801202C57557019046
:1002750008D575F0800202C57557009008E675F03F
:10028500801202C57557019008F775F0800202C506
:1002950075570090090875F0801202C575570190D1
:1002A500091975F0800202C575570090092A75F085
:1002B500801202C575570190093B75F0800202C591
:1002C500AA82AB83ACF0E557C454F02422FDE4F5D3
:1002D50058F559E5582DF88A828B838CF01208A4BD
:1002E500FEA3AA82AB83A6060558E4B558020559B4
:1002F5008A828B838CF01208A470D822854253859C
:1003050043548544558545567477B52102800302CB
:1003150003757401B5420EE4B5430AE4B54406E439
:10032500B5450280277402B5420EE4B5430AE4B52B
:100335004406E4B5450280207403B5420EE4B54396
:100345000AE4B54406E4B5450280192275570190C3
:10035500094C75F0800202C575570190095D75F06D
:10036500800202C575570190096E75F0800202C5BD
:100375007E00C3EE6480948B5009EE2432F876201B
:100385000E80EF8E52E553455445554556604EE572
:10039500522432F875570AE4F558F559F55A85533C
:1003A500828554838555F0E556C000120803AF8257
:1003B500D00074302FF675570AE4F558F559F55AFB
:1003C5008553828554838555F0E5561208528582FA
:1003D5005385835485F055F556155280A822D2A829
:1003E500C2AAC2A9C2ABC2ACD2B8C2B9C28AD2AF84
:0D03F500221206861203E37590F002022C1E
:1008C40057656C636F6D6520746F207573652021A7
:1008D400003E3E4D61646520696E205357554E3C81
:1008E4003C003D576176652054797065202053653E
:1008F400743D00312E73696E20322E66616E203392
:100904002E7472003D4672657175656E63652020B4
:100914005365743D0020202020202020202020200A
:1009240030204B487A003D416D706C697475646584
:1009340020205365743D00202020202020202020EA
:1009440020203020566F6C00312E53696E202020F9
:10095400202020202020202000322E467265712085
:1009640020202020202020202000332E54726920B3
:0B097400202020202020202020200038
:10040200AA82EA60357BC87C00C3E49B74808CF0CE
:1004120063F08095F050207DC87E00C3E49D748017
:100422008EF063F08095F050071DBDFFEE1E80EB4D
:100432001BBBFFD51C80D21A80C822AA827557EE38
:100442007558017559DE755A02755BBE755C037588
:100452005D7E755E77755FED7560067561DD75624F
:10046200057563BD75640475657D7566667567EBB4
:100472007568077569DB756A08756BBB756C0975FC
:100482006D7B756E61756FE775700A7571D77572E0
:10049200007573B7757463757577757673757700C4
:1004A2007578427B10EB20E716EB2BFC2457F8E61D
:1004B200FDB50208EC245704F88682221B80E675FB
:1004C2008200227A08EA6023EAF4F590E590C454A7
:1004D2000FFBBB0F16C2D575F002EA30E704B2D5A6
:1004E200F4048430D502F404FA80DAAA907590F00C
:1004F2008A8222C2A2C2A0D2A17580FFD2A2208784
:10050200F2C2A222AA82C0021204F5D002EA24FF99
:1005120092A0C2A1850880D2A2C2A222AA827B1086
:10052200BA66027B18C374808509F063F08095F087
:100532005006EB2404FB8006C3E49509F509AA09D9
:10054200EA60138B08758200C002C003120506D050
:1005520003D0021A80EA22AA82E50A600474402AC1
:10056200FA74802AF508758200020506750801757D
:100572008200020506AA82AB83ACF07D00ED2AFE62
:10058200E43BFF8C008E828F8388F01208A4FE6009
:100592001B8E08758201C002C003C004C00512058B
:1005A20006D005D004D003D0020D80D122AA82AB9E
:1005B20083ACF0850C0A850B82C002C003C0041212
:1005C2000559D004D003D0027D00ED2AFEE43BFFA2
:1005D2008C008E828F8388F01208A4FE601B8E0826
:1005E200758201C002C003C004C005120506D00511
:1005F200D004D003D0020D80D122AA82850E0A85B2
:100602000D82C002120559D0028A087582010205C4
:1006120006AA82AB83ACF0FD85100A850F82C00268
:10062200C003C004C005120559D005D004D003D0C0
:100632000275570AE4F558F559F55A8A828B838C6C
:10064200F0EDC002C003C004C005120803AE8274FC
:10065200202EF508758201120506D005D004D003BC
:10066200D00275570AE4F558F559F55A8A828B83F8
:100672008CF0ED120852AA82AB83ACF0FDEA4B4C2F
:100682004D70952275083C758200120506750806A4
:1006920075820012050675080F7582001205061292
:1006A200056E750802758200020506F9E557455880
:1006B2004559455A60777800C308E55A20E73BE57B
:1006C2005725E0F557E55833F558E55933F559E51F
:1006D2005A33F55AE5829557E5839558E5F09559D1
:1006E200E9955A50D4C3E55A13F55AE55913F55909
:1006F200E55813F558E55713F557E5829557FCE58C
:10070200839558FDE5F09559FEE9955A4007F98E13
:10071200F08D838C82C3E55A13F55AE55913F559C6
:10072200E55813F558E55713F557D8CEE922FB7A69
:1007320020E4FCFDFEFFE5822582F582E58333F5A8
:1007420083E5F033F5F0EB33FB4017DAE98042E55D
:10075200822582F582E58333F583E5F033F5F0EB0C
:1007620033FBEC33FCED33FDEE33FEEF33FFEC9560
:1007720057ED9558EE9559EF955A4013EC9557FC65
:10078200ED9558FDEE9559FEEF955AFF438201DA39
:03079200BEEB2299
:06003A00E478FFF6D8FD9A
:100018007900E94400601B7A0090097F780075A098
:1000280000E493F2A308B8000205A0D9F4DAF27547
:02003800A0FF27
:10079500AAF0FBE5828557F0A4FCADF0E58385570B
:1007A500F0A42DFDE435F0FEE5828558F0A42DFD7D
:1007B500E5F03EFEE433FFEA8557F0A42EFEE5F0B2
:1007C5003FFFE5838558F0A42EFEE5F03FFFE58267
:1007D5008559F0A42EFEE5F03FFFEB8557F0A42FD9
:1007E500FFEA8558F0A42FFFE5838559F0A42FFF74
:0E07F500E582855AF0A42F8EF08D838C82222F
:100040007800E84400600A790075A000E4F309D85C
:10005000FC7800E84400600C7900900000E4F0A314
:04006000D8FCD9FAF5
:10080300F9C2D530E715D2D5E4C39582F582E495D4
:1008130083F583E495F0F5F0E499F9E55A30E715AB
:10082300E4C39557F557E49558F558E49559F559A8
:10083300E4955AF55AE91206AD30D512E4C3958210
:10084300F582E49583F583E495F0F5F0E49922FBD2
:10085300C2D530E715D2D5E4C39582F582E49583FA
:10086300F583E495F0F5F0E49BFBE55A30E717B226
:10087300D5E4C39557F557E49558F558E49559F5DC
:1008830059E4955AF55AEB12073030D513FBE4C3FC
:100893009582F582E49583F583E495F0F5F0E49B86
:0108A3002232
:0D000B007581781208C0E5826003020006CE
:1008A40020F71430F6148883A88220F507E6A8837D
:1008B40075830022E280F7E49322E022758200220D
:00000001FF
