:0600000002000B02028F5A
:0E006400752200752300E4F543F54402000602
:050006001203BD80FEA5
:10007200AA82EA60357BC87C00C3E49B74808CF062
:1000820063F08095F050207DC87E00C3E49D7480AB
:100092008EF063F08095F050071DBDFFEE1E80EBE1
:1000A2001BBBFFD51C80D21A80C822C2A2C2A0D21A
:1000B200A17580FFD2A22087F2C2A222AA82C2AF79
:1000C200C0021200ADD002C2A0C2A1D2A28A80C2D6
:1000D200A2D2AF22AA82C2AFC0021200ADD002D217
:1000E200A0C2A1D2A28A80C2A2D2AF221201A2755C
:1000F200820A1200BE7582061200BE75820C1200C0
:10010200BE7582381200BE75210075820202016A34
:10011200AA82EA6026C374808AF063F08095F05068
:100122000D75821CC0021200BED0021A80E47582D4
:1001320018C0021200BED0020A80D722AA82EA6048
:1001420026C374808AF063F08095F0500D75821496
:10015200C0021200BED0021A80E4758210C00212E0
:1001620000BED0020A80D722AA82C374908521F0F1
:1001720063F08095F050047B0F8002AB21C3748240
:100182008AF063F08095F050047C0180028A048C2E
:1001920002EB600474402AFA74802AF5820200BEDF
:1001A2007582010200BEAA82AB83ACF07D00ED2A0B
:1001B200FEE43BFF8C008E828F8388F01203CCFE1C
:1001C20060188E82C002C003C004C0051200D6D0DF
:1001D20005D004D003D0020D80D422AA827545EE48
:1001E2007546617547DE7548657549B7754A697523
:1001F2004B7E754C6D754DED754E62754FDD7550CC
:10020200667551BD75526A75537775546E7555EBA7
:100212007556637557DB7558677559BB755A6B759B
:100222005B7B755C6F755DE7755E64755FD7756046
:10023200687561BE75626C75637D7564707B10EB69
:1002420020E716EB2BFC2445F8E6FDB50208EC246A
:100252004504F88682221B80E675824F227A08EADC
:100262006023EAF4F590E590C4540FFBBB0F16C26D
:10027200D575F002EA30E704B2D5F4048430D50231
:10028200F404FA80DAAA907590F08A8222C020C023
:10029200E0C0F0C082C083C002C003C004C005C079
:1002A20006C007C000C001C0D075D00012025F12A4
:1002B20001DDE582FA3395E08A821200D675820169
:1002C200120072D0D0D001D000D007D006D005D015
:1002D20004D003D002D083D082D0F0D0E0D020323C
:1002E2007446B5220280427461B522028055747749
:1002F200B52202801A7545009003EC75F080120356
:10030200817545019003FC75F080120381804C7564
:10031200450090040A75F08012038175450190042E
:100322001775F0801203818032754500900427759D
:10033200F08012038175450190043375F080120339
:1003420081801875450090044475F0801203817510
:10035200450190045075F080120381752100758269
:100362000012016A90002375F0401201A875210164
:1003720075820012016A90003375F0400201A8AA4A
:1003820082AB83ACF0E545C454F02423FDE4F5468A
:10039200F547E5462DF88A828B838CF01203CCFE5A
:1003A200A3AA82AB83A6060546E4B5460205478AA0
:1003B200828B838CF01203CC70D8221200EED2AF63
:0A03C200D2A8D2B8C2887590F022CC
:1003EC0057656C636F6D6520746F207573652100A4
:1003FC00506F776572206279205357554E005761C4
:10040C0076652053656C6563743A003173696E20B0
:10041C003266616E6720337472690046726571755D
:10042C002020205365740020202020202020202014
:10043C00202020204B487A00416D706C2020202019
:10044C0053657400202020202020202020202020F4
:05045C0020566F6C004A
:06003A00E478FFF6D8FD9A
:100018007900E94400601B7A00900461780075A0BB
:1000280000E493F2A308B8000205A0D9F4DAF27547
:02003800A0FF27
:100040007800E84400600A790075A000E4F309D85C
:10005000FC7800E84400600C7900900000E4F0A314
:04006000D8FCD9FAF5
:0D000B007581641203E8E5826003020006BF
:1003CC0020F71430F6148883A88220F507E6A8835A
:1003DC0075830022E280F7E49322E02275820022EA
:00000001FF
