:10084800C2B5C2B7D2B67580FFD2B52087F2C2B59D
:01085800227D
:10085900120848EF24FF92B7C2B68D80D2B5C2B54F
:01086900226C
:02075300AE05F1
:100755007C10BF660474082CFCD3EE648094804042
:100765000674042CFC8004EEF404FEEE600AAD046D
:08077500E4FF1208591E80F395
:01077D002259
:10086A00ED600474402FFFEF2480FDE4FF02085975
:070898007D01E4FF02085995
:06077E008B5E8A5F8960BA
:10078400E4FEAB5EAA5FA960EEFD3395E08D82F5D1
:0F079400831200F9FD60087F011208590E80E3FF
:0107A3002233
:0806CD008B3B8A3C893DAF051F
:1006D500E4FEAD3F12086AAB3BAA3CA93DEEFD33F3
:1006E50095E08D82F5831200F9FD60087F011208FF
:0406F500590E80E337
:0106F90022DE
:07089F00AD077F01020859BB
:10083600AE07AC03AF05AD0412086AAD067F010230
:0208460008594F
:0805C1008F3E8E3D8D3C8C3B0A
:1005C900853F41AD40AF4112086AE47B0AFAF9F868
:1005D900AF3EAE3DAD3CAC3B120617EB2430FD7F80
:1005E900011208591541AF3EAE3DAD3CAC3BE47B31
:1005F9000AFAF9F81206178F3E8E3D8D3C8C3BECBA
:0E0609004D4E4F70BE053FAF3FAD4002086A38
:100804007D3CE4FF1208597D061208597D0E12083A
:0B081400591208987D02E4FF02085909
:100484002020202020202020202020202020202068
:10049400005265637420202020413D202020566FA7
:1004A4006C005472696120202020413D2020205698
:1004B4006F6C0073696E6520202020413D20202050
:1004C400566F6C00463D202020202020204B487A87
:1004D40000576176652053656C6563740053696EDB
:1004E400652057617665004465636F2057617665C2
:1004F4000054726961205761766500312E53696E2C
:1005040020322E44656320332E547269004672658E
:100514007175656E636520536574004B487A0041BC
:100524006D706C652053657474696E6700566F6CEA
:0105340000C6
:10065B000108002026122020202020576176653BC0
:10066B00463D20202020204B487A3B413D20202036
:10067B00566F6C20202000000000000001110004C8
:0B068B000D0000000004090103E80559
:1006FA00E50824FE601114601D2402701C8510098F
:10070A00E50914F5A08012850F0A85100BAF0BAE10
:0D071A000A120727800385100CE4F5082261
:100293007BFF7A047984E4F53FFD1206CD7BFF7A78
:1002A300047984753F01E4FD1206CDE50814606608
:1002B30014700302036F1470030203972403600393
:1002C3000203C3E50924FD600B0470107BFF7A046D
:1002D3007995800E7BFF7A0479A680067BFF7A04EA
:1002E30079B7E4F53FFD1206CD7BFF7A0479C87533
:1002F3003F01E4FD1206CDAF0CEF3395E0FEFDFCAC
:10030300753F0CE4F5401205C1AE0AAF0BE4FCFDEA
:10031300753F080203BD7BFF7A0479D5E4F53FFD01
:100323001206CDAC0DAD0EAE0FAF1012018B03470D
:1003330000000001034F0000000203570000000308
:100343000000035F7BFF7A0479E180167BFF7A0468
:1003530079EB800E7BFF7A0479F580067BFF7A04C4
:1003630079FF753F01E4FD1206CD80547BFF7A05CA
:100373007911E4F53FFD1206CD7BFF7A05791F75F0
:100383003F017D0D1206CDAF10AE0FAD0EAC0D7556
:100393003F0C80267BFF7A057923E4F53FFD1206A7
:1003A300CD7BFF7A057931753F017D0D1206CDAF07
:1003B30010AE0FAD0EAC0D753F0C7540011205C1AB
:0403C300E4F511222A
:0E088A00D2A8D2B8D288E4F598D2ACD2AF2270
:10081F00E4FEFDEE25E0FEEF54012EFEEFC313FFC5
:06082F000DBD08EFAF064D
:0108350022A0
:100727008E3B8F3CC2B3E53BFF12081F8F99309970
:10073700FDC2997F021207C6AF3C12081F8F99307E
:0C07470099FDC2997F021207C6D2B322AE
:1003C70012088A7590F0120293E4F539F53AAF3ABC
:1003D700AE39120727053AE53A70020539C394FF8B
:1003E700E53994FF40E81207E71206978F38E5389A
:1003F700644660F2E538D3940A401674EC2538F564
:1004070038B404051206FA8003853808E4F510802D
:100417000BE508605DB4010CE4853810F50FF50EA7
:10042700F50D804E7FFF7EC97D9A7C3BAB10AA0FEE
:10043700A90EA80DD3120175E44006FFFEFDFC804E
:10044700297F0AFEFDFCAB10AA0FA90EA80D120109
:1004570026A804A905AA06AB07E4FCFDFEEB253890
:10046700FFEE3AFEED39FDEC38FC8F108E0F8D0E46
:0D0477008C0D1202937F011207C60203EDE7
:1007C600EF601D7DC87C007BC87A00EB1B70011AA8
:1007D600EB4A70F7ED1D70011CED4C70EA1F80E0CE
:0107E60022F0
:0F087A00EF4E600B7D28DDFEEF1F70F41E80F146
:01088900224C
:1007A400EE01DE02BE037E15ED06DD05BD047D16F9
:1007B400EB07DB08BB097B17E70AD700B7147718E8
:0207C4000046ED
:020697008F3B97
:10069900783C7C007D007BFF7A0779A47E007F226D
:1006A9001200D37F10EF25E0243CF8E6B53B09EFB3
:1006B90025E0243DF8E6FF221FC3EF6480948050B3
:0306C900E47F4685
:0106CC00220B
:1007E7007F08EF6012F4F590E590C4540FFEBE0F3A
:0C07F70006EFC313FF80EBAF907590F08D
:0108030022D2
:03000000020535C1
:0C053500787FE4F6D8FD75816002057C3B
:10000300E709F608DFFA8046E709F208DFFA803EDF
:1000130088828C83E709F0A3DFFA8032E309F608CC
:10002300DFFA8078E309F208DFFA807088828C8334
:10003300E309F0A3DFFA806489828A83E0A3F608E8
:10004300DFFA805889828A83E0A3F208DFFA804CC2
:1000530080D280FA80C680D4806980F28033801099
:1000630080A680EA809A80A880DA80E280CA803302
:1000730089828A83ECFAE493A3C8C582C8CCC5837A
:10008300CCF0A3C8C582C8CCC583CCDFE9DEE7804A
:100093000D89828A83E493A3F608DFF9ECFAA9F0C9
:1000A300EDFB2289828A83ECFAE0A3C8C582C8CC1F
:1000B300C583CCF0A3C8C582C8CCC583CCDFEADE38
:1000C300E880DB89828A83E493A3F208DFF980CC9A
:1000D30088F0EF60010E4E60C388F0ED2402B40493
:1000E3000050B9F582EB2402B4040050AF2323453A
:0600F3008223900053730C
:1000F900BB010CE58229F582E5833AF583E02250BC
:1001090006E92582F8E622BBFE06E92582F8E22205
:0D011900E58229F582E5833AF583E493221F
:10012600E88FF0A4CC8BF0A42CFCE98EF0A42CFC78
:100136008AF0EDA42CFCEA8EF0A4CDA8F08BF0A4F6
:100146002DCC3825F0FDE98FF0A42CCD35F0FCEB55
:100156008EF0A4FEA9F0EB8FF0A4CFC5F02ECD391A
:0F016600FEE43CFCEAA42DCE35F0FDE43CFC2287
:10061700C2D5E830E70FB2D5E4C39BFBE49AFAE40E
:1006270099F9E498F8EC30E717B2D512064D1202A3
:1006370001E4C39BFBE49AFAE499F9E498F8800390
:1006470012020130D50DE4C39FFFE49EFEE49DFD39
:04065700E49CFC2201
:10017500EB9FF5F0EA9E42F0E99D42F0EC6480C801
:0601850064809845F022A1
:10018B00D083D082E4937012740193700DA3A39368
:10019B00F8740193F5828883E4737402936C701284
:1001AB007403936D700C7404936E70067405936FE7
:0A01BB0060DDA3A3A3A3A3A380CAE1
:100541000203C7E493A3F8E493A34003F68001F206
:1005510008DFF48029E493A3F85407240CC8C333BB
:10056100C4540F4420C8834004F456800146F6DF8A
:10057100E4800B010204081020408090065BE47EB9
:10058100019360BCA3FF543F30E509541FFEE4937F
:10059100A360010ECF54C025E060A840B8E493A346
:1005A100FAE493A3F8E493A3C8C582C8CAC583CA71
:1005B100F0A3C8C582C8CAC583CADFE9DEE780BE29
:010696000063
:1001C50075F008758200EF2FFFEE33FECD33CDCCF1
:1001D50033CCC58233C5829BED9AEC99E582984074
:1001E5000CF582EE9BFEED9AFDEC99FC0FD5F0D651
:1001F500E4CEFBE4CDFAE4CCF9A88222B800C1B97B
:100205000059BA002DEC8BF084CFCECDFCE5F0CBB8
:10021500F97818EF2FFFEE33FEED33FDEC33FCEBF1
:1002250033FB10D703994004EB99FB0FD8E5E4F9AC
:10023500FA227818EF2FFFEE33FEED33FDEC33FC99
:10024500C933C910D7059BE99A4007EC9BFCE99A8D
:10025500F90FD8E0E4C9FAE4CCFB2275F010EF2FD2
:10026500FFEE33FEED33FDCC33CCC833C810D707D2
:100275009BEC9AE899400AED9BFDEC9AFCE899F80D
:0E0285000FD5F0DAE4CDFBE4CCFAE4C8F922A0
:00000001FF
