:1007A200C2B5C2B7D2B67580FFD2B52087F2C2B544
:0107B2002224
:1007B3001207A2EF24FF92B7C2B68D80D2B5C2B59D
:0107C3002213
:02068500AE05C0
:100687007C10BF660474082CFCD3EE648094804011
:100697000674042CFC8004EEF404FEEE600AAD043C
:0806A700E4FF1207B31E80F30B
:0106AF002228
:1007D500ED600474402FFFEF2480FDE4FF0207B3B2
:070803007D01E4FF0207B3D1
:0606D7008B658A6689674D
:1006DD00E4FEAB65AA66A967EEFD3395E08D82F564
:0F06ED00831200FCFD60087F011207B30E80E34B
:0106FC0022DB
:080658008B5E8A5F8960AF052B
:10066000E4FEAD621207D5AB5EAA5FA960EEFD3372
:1006700095E08D82F5831200FCFD60087F01120772
:04068000B30E80E352
:010684002253
:07080A00AD077F010207B3F7
:10079000AE07AC03AF05AD041207D5AD067F01026D
:0207A00007B39D
:080515008F618E608D5F8C5E2A
:10051D00856264AD63AF641207D5E47B0AFAF9F81E
:10052D00AF61AE60AD5FAC5E12056BEB2430FD7F4D
:10053D00011207B31564AF61AE60AD5FAC5EE47BD5
:10054D000AFAF9F812056B8F618E608D5F8C5EEC87
:0E055D004D4E4F70BE0562AF62AD630207D512
:10075D007D3CE4FF1207B37D061207B37D0E120731
:0B076D00B31208037D02E4FF0207B393
:1003CB0068656C6C6F2C61746875726700202020F7
:1003DB0020202020202020202020202020005265BB
:1003EB00637420202020413D202020566F6C005448
:1003FB0072696120202020413D202020566F6C0027
:10040B0073696E6520202020413D202020566F6CA3
:10041B0000463D202020202020204B487A005761A9
:10042B0076652053656C6563740053696E65205760
:10043B00617665004465636F205761766500547281
:10044B006961205761766500312E53696E20322E1B
:10045B0044656320332E547269004672657175656D
:10046B006E636520536574004B487A00416D706C68
:0E047B00652053657474696E6700566F6C00DF
:1005AF000108002026142020202020576176653B6B
:1005BF00463D20202020204B487A3B413D202020E3
:1005CF00566F6C2020200000000000000113000473
:0D05DF000F00000000060901000003E80500
:03000300020623CF
:10062300C0E0C0F0C083C082C0D075D000C000C09D
:0D06330001C002C003C004C005C006C0071E
:100640007BFF7A0379CB756200E4FD12065812072E
:08065000401205ED8F3A80FE17
:1006B000E50824FE600C14601724027016851209E8
:1006C000801185120D85110C85100B850F0A800392
:0706D00085120EE4F508227B
:100296007BFF7A0379D8E4F562FD1206587BFF7A74
:1002A6000379D8756201E4FD120658E50814606703
:1002B60014700302037314700302039B2403600388
:1002C6000203C7E50924FD600B0470107BFF7A0367
:1002D60079E9800E7BFF7A0379FA80067BFF7A0440
:1002E600790BE4F562FD1206587BFF7A04791C75DA
:1002F6006201E4FD120658AF0EEF3395E0FEFDFCF9
:1003060075620CE4F563120515AF0DAE0CAD0BACC2
:100316000A7562080203C17BFF7A047929E4F56253
:10032600FD120658AC0FAD10AE11AF1212018E03BE
:100336004B00000001035300000002035B000000B5
:1003460003000003637BFF7A04793580167BFF7A0E
:1003560004793F800E7BFF7A04794980067BFF7A19
:10036600047953756201E4FD12065880547BFF7AC6
:10037600047965E4F562FD1206587BFF7A04797309
:100386007562017D0D120658AF12AE11AD10AC0F9D
:1003960075620C80267BFF7A047977E4F562FD129C
:1003A60006587BFF7A0479857562017D0D12065821
:1003B600AF12AE11AD10AC0F75620C75630112056C
:0503C60015E4F513220F
:0E07F500D2A8D2B8D288E4F598D2ACD2AF2206
:10077800AD07AC06C2B38C993099FDC299EDF599D5
:080788003099FDC299D2B322A1
:1007C40012075D1207F57590F075B0FF120296805E
:0107D400FE26
:10071F00EF601D7DC87C007BC87A00EB1B70011A4F
:10072F00EB4A70F7ED1D70011CED4C70EA1F80E075
:01073F002297
:0F07E500EF4E600B7D28DDFEEF1F70F41E80F1DC
:0107F40022E2
:1006FD00EE01DE02BE037E15ED06DD05BD047D16A1
:10070D00EB07DB08BB097B17E70AD700B71477188F
:02071D00004298
:0205ED008F3B42
:1005EF00783C7C007D007BFF7A0679FD7E007F22C0
:1005FF001200D67F10EF25E0243CF8E6B53B09EF5B
:10060F0025E0243DF8E6FF221FC3EF64809480505D
:03061F00E47F0075
:0106220022B5
:100740007F08EF6012F4F590E590C4540FFEBE0FE1
:0C07500006EFC313FF80EBAF907590F034
:01075C00227A
:030000000204896E
:0C048900787FE4F6D8FD7581670204D08E
:10000600E709F608DFFA8046E709F208DFFA803EDC
:1000160088828C83E709F0A3DFFA8032E309F608C9
:10002600DFFA8078E309F208DFFA807088828C8331
:10003600E309F0A3DFFA806489828A83E0A3F608E5
:10004600DFFA805889828A83E0A3F208DFFA804CBF
:1000560080D280FA80C680D4806980F28033801096
:1000660080A680EA809A80A880DA80E280CA8033FF
:1000760089828A83ECFAE493A3C8C582C8CCC58377
:10008600CCF0A3C8C582C8CCC583CCDFE9DEE78047
:100096000D89828A83E493A3F608DFF9ECFAA9F0C6
:1000A600EDFB2289828A83ECFAE0A3C8C582C8CC1C
:1000B600C583CCF0A3C8C582C8CCC583CCDFEADE35
:1000C600E880DB89828A83E493A3F208DFF980CC97
:1000D60088F0EF60010E4E60C388F0ED2402B40490
:1000E6000050B9F582EB2402B4040050AF23234537
:0600F60082239000567306
:1000FC00BB010CE58229F582E5833AF583E02250B9
:10010C0006E92582F8E622BBFE06E92582F8E22202
:0D011C00E58229F582E5833AF583E493221C
:10012900E88FF0A4CC8BF0A42CFCE98EF0A42CFC75
:100139008AF0EDA42CFCEA8EF0A4CDA8F08BF0A4F3
:100149002DCC3825F0FDE98FF0A42CCD35F0FCEB52
:100159008EF0A4FEA9F0EB8FF0A4CFC5F02ECD3917
:0F016900FEE43CFCEAA42DCE35F0FDE43CFC2284
:10056B00C2D5E830E70FB2D5E4C39BFBE49AFAE4BB
:10057B0099F9E498F8EC30E717B2D51205A11202FD
:10058B0004E4C39BFBE49AFAE499F9E498F880033A
:10059B0012020430D50DE4C39FFFE49EFEE49DFDE3
:0405AB00E49CFC22AE
:10017800EB9FF5F0EA9E42F0E99D42F0EC6480C8FE
:0601880064809845F0229E
:10018E00D083D082E4937012740193700DA3A39365
:10019E00F8740193F5828883E4737402936C701281
:1001AE007403936D700C7404936E70067405936FE4
:0A01BE0060DDA3A3A3A3A3A380CADE
:100495000207C4E493A3F8E493A34003F68001F2B2
:1004A50008DFF48029E493A3F85407240CC8C33368
:1004B500C4540F4420C8834004F456800146F6DF37
:1004C500E4800B01020408102040809005AFE47E13
:1004D500019360BCA3FF543F30E509541FFEE4932C
:1004E500A360010ECF54C025E060A840B8E493A3F3
:1004F500FAE493A3F8E493A3C8C582C8CAC583CA1E
:10050500F0A3C8C582C8CAC583CADFE9DEE780BED5
:0105EC00000E
:1001C80075F008758200EF2FFFEE33FECD33CDCCEE
:1001D80033CCC58233C5829BED9AEC99E582984071
:1001E8000CF582EE9BFEED9AFDEC99FC0FD5F0D64E
:1001F800E4CEFBE4CDFAE4CCF9A88222B800C1B978
:100208000059BA002DEC8BF084CFCECDFCE5F0CBB5
:10021800F97818EF2FFFEE33FEED33FDEC33FCEBEE
:1002280033FB10D703994004EB99FB0FD8E5E4F9A9
:10023800FA227818EF2FFFEE33FEED33FDEC33FC96
:10024800C933C910D7059BE99A4007EC9BFCE99A8A
:10025800F90FD8E0E4C9FAE4CCFB2275F010EF2FCF
:10026800FFEE33FEED33FDCC33CCC833C810D707CF
:100278009BEC9AE899400AED9BFDEC9AFCE899F80A
:0E0288000FD5F0DAE4CDFBE4CCFAE4C8F9229D
:00000001FF
