:10084300C2B5C2B7D2B67580FFD2B52087F2C2B5A2
:010853002282
:10085400120843EF24FF92B7C2B68D80D2B5C2B559
:010864002271
:02072600AE051E
:100728007C10BF660474082CFCD3EE64809480406F
:100738000674042CFC8004EEF404FEEE600AAD049A
:08074800E4FF1208541E80F3C7
:010750002286
:10086500ED600474402FFFEF2480FDE4FF0208547F
:070893007D01E4FF0208549F
:060779008B5E8A5F8960BF
:10077F00E4FEAB5EAA5FA960EEFD3395E08D82F5D6
:0F078F00831200F9FD60087F011208540E80E309
:01079E002238
:0806CD008B3B8A3C893DAF051F
:1006D500E4FEAD3F120865AB3BAA3CA93DEEFD33F8
:1006E50095E08D82F5831200F9FD60087F011208FF
:0406F500540E80E33C
:0106F90022DE
:07089A00AD077F01020854C5
:10083100AE07AC03AF05AD04120865AD067F01023A
:02084100085459
:0805C1008F3E8E3D8D3C8C3B0A
:1005C900853F41AD40AF41120865E47B0AFAF9F86D
:1005D900AF3EAE3DAD3CAC3B120617EB2430FD7F80
:1005E900011208541541AF3EAE3DAD3CAC3BE47B36
:1005F9000AFAF9F81206178F3E8E3D8D3C8C3BECBA
:0E0609004D4E4F70BE053FAF3FAD400208653D
:1007FF007D3CE4FF1208547D061208547D0E12084A
:0B080F00541208937D02E4FF0208541D
:100484002020202020202020202020202020202068
:10049400005265637420202020413D202020566FA7
:1004A4006C005472696120202020413D2020205698
:1004B4006F6C0073696E6520202020413D20202050
:1004C400566F6C00463D202020202020204B487A87
:1004D40000576176652053656C6563740053696EDB
:1004E400652057617665004465636F2057617665C2
:1004F4000054726961205761766500312E53696E2C
:1005040020322E44656320332E547269004672658E
:100514007175656E636520536574004B487A0041BC
:100524006D706C652053657474696E6700566F6CEA
:0105340000C6
:10065B000108002026122020202020576176653BC0
:10066B00463D20202020204B487A3B413D20202036
:10067B00566F6C20202000000000000001110004C8
:0B068B000D0000000004090103E80559
:10075100E50824FE600C1460112402701085100954
:10076100800B850F0A85100B800385100CAF0BAE33
:080771000A1206FAE4F5082261
:100293007BFF7A047984E4F53FFD1206CD7BFF7A78
:1002A300047984753F01E4FD1206CDE50814606608
:1002B30014700302036F1470030203972403600393
:1002C3000203C3E50924FD600B0470107BFF7A046D
:1002D3007995800E7BFF7A0479A680067BFF7A04EA
:1002E30079B7E4F53FFD1206CD7BFF7A0479C87533
:1002F3003F01E4FD1206CDAF0CEF3395E0FEFDFCAC
:10030300753F0CE4F5401205C1AE0AAF0BE4FCFDEA
:10031300753F080203BD7BFF7A0479D5E4F53FFD01
:100323001206CDAC0DAD0EAE0FAF1012018B03470D
:1003330000000001034F0000000203570000000308
:100343000000035F7BFF7A0479E180167BFF7A0468
:1003530079EB800E7BFF7A0479F580067BFF7A04C4
:1003630079FF753F01E4FD1206CD80547BFF7A05CA
:100373007911E4F53FFD1206CD7BFF7A05791F75F0
:100383003F017D0D1206CDAF10AE0FAD0EAC0D7556
:100393003F0C80267BFF7A057923E4F53FFD1206A7
:1003A300CD7BFF7A057931753F017D0D1206CDAF07
:1003B30010AE0FAD0EAC0D753F0C7540011205C1AB
:0403C300E4F511222A
:0E088500D2A8D2B8D288E4F598D2ACD2AF2275
:10081A00E4FEFDEE25E0FEEF54012EFEEFC313FFCA
:06082A000DBD08EFAF0652
:0108300022A5
:1006FA008E3B8F3CC2B3E53BFF12081A8F993099A3
:10070A00FDC2997F021207C1AF3C12081A8F9930B5
:0C071A0099FDC2997F021207C1D2B322E0
:1003C7001208857590F0120293E4F539F53AAF3AC1
:1003D700AE391206FA053AE53A70020539C394FFB9
:1003E700E53994FF40E81207E21206978F38E5389F
:1003F700644660F2E538D3940A401674EC2538F564
:1004070038B404051207518003853808E4F51080D5
:100417000BE508605DB4010CE4853810F50FF50EA7
:10042700F50D804E7FFF7EC97D9A7C3BAB10AA0FEE
:10043700A90EA80DD3120175E44006FFFEFDFC804E
:10044700297F0AFEFDFCAB10AA0FA90EA80D120109
:1004570026A804A905AA06AB07E4FCFDFEEB253890
:10046700FFEE3AFEED39FDEC38FC8F108E0F8D0E46
:0D0477008C0D1202937F011207C10203EDEC
:1007C100EF601D7DC87C007BC87A00EB1B70011AAD
:1007D100EB4A70F7ED1D70011CED4C70EA1F80E0D3
:0107E10022F5
:0F087500EF4E600B7D28DDFEEF1F70F41E80F14B
:010884002251
:10079F00EE01DE02BE037E15ED06DD05BD047D16FE
:1007AF00EB07DB08BB097B17E70AD700B7147718ED
:0207BF000046F2
:020697008F3B97
:10069900783C7C007D007BFF7A07799F7E007F2272
:1006A9001200D37F10EF25E0243CF8E6B53B09EFB3
:1006B90025E0243DF8E6FF221FC3EF6480948050B3
:0306C900E47F4685
:0106CC00220B
:1007E2007F08EF6012F4F590E590C4540FFEBE0F3F
:0C07F20006EFC313FF80EBAF907590F092
:0107FE0022D8
:03000000020535C1
:0C053500787FE4F6D8FD75816002057C3B
:10000300E709F608DFFA8046E709F208DFFA803EDF
:1000130088828C83E709F0A3DFFA8032E309F608CC
:10002300DFFA8078E309F208DFFA807088828C8334
:10003300E309F0A3DFFA806489828A83E0A3F608E8
:10004300DFFA805889828A83E0A3F208DFFA804CC2
:1000530080D280FA80C680D4806980F28033801099
:1000630080A680EA809A80A880DA80E280CA803302
:1000730089828A83ECFAE493A3C8C582C8CCC5837A
:10008300CCF0A3C8C582C8CCC583CCDFE9DEE7804A
:100093000D89828A83E493A3F608DFF9ECFAA9F0C9
:1000A300EDFB2289828A83ECFAE0A3C8C582C8CC1F
:1000B300C583CCF0A3C8C582C8CCC583CCDFEADE38
:1000C300E880DB89828A83E493A3F208DFF980CC9A
:1000D30088F0EF60010E4E60C388F0ED2402B40493
:1000E3000050B9F582EB2402B4040050AF2323453A
:0600F3008223900053730C
:1000F900BB010CE58229F582E5833AF583E02250BC
:1001090006E92582F8E622BBFE06E92582F8E22205
:0D011900E58229F582E5833AF583E493221F
:10012600E88FF0A4CC8BF0A42CFCE98EF0A42CFC78
:100136008AF0EDA42CFCEA8EF0A4CDA8F08BF0A4F6
:100146002DCC3825F0FDE98FF0A42CCD35F0FCEB55
:100156008EF0A4FEA9F0EB8FF0A4CFC5F02ECD391A
:0F016600FEE43CFCEAA42DCE35F0FDE43CFC2287
:10061700C2D5E830E70FB2D5E4C39BFBE49AFAE40E
:1006270099F9E498F8EC30E717B2D512064D1202A3
:1006370001E4C39BFBE49AFAE499F9E498F8800390
:1006470012020130D50DE4C39FFFE49EFEE49DFD39
:04065700E49CFC2201
:10017500EB9FF5F0EA9E42F0E99D42F0EC6480C801
:0601850064809845F022A1
:10018B00D083D082E4937012740193700DA3A39368
:10019B00F8740193F5828883E4737402936C701284
:1001AB007403936D700C7404936E70067405936FE7
:0A01BB0060DDA3A3A3A3A3A380CAE1
:100541000203C7E493A3F8E493A34003F68001F206
:1005510008DFF48029E493A3F85407240CC8C333BB
:10056100C4540F4420C8834004F456800146F6DF8A
:10057100E4800B010204081020408090065BE47EB9
:10058100019360BCA3FF543F30E509541FFEE4937F
:10059100A360010ECF54C025E060A840B8E493A346
:1005A100FAE493A3F8E493A3C8C582C8CAC583CA71
:1005B100F0A3C8C582C8CAC583CADFE9DEE780BE29
:010696000063
:1001C50075F008758200EF2FFFEE33FECD33CDCCF1
:1001D50033CCC58233C5829BED9AEC99E582984074
:1001E5000CF582EE9BFEED9AFDEC99FC0FD5F0D651
:1001F500E4CEFBE4CDFAE4CCF9A88222B800C1B97B
:100205000059BA002DEC8BF084CFCECDFCE5F0CBB8
:10021500F97818EF2FFFEE33FEED33FDEC33FCEBF1
:1002250033FB10D703994004EB99FB0FD8E5E4F9AC
:10023500FA227818EF2FFFEE33FEED33FDEC33FC99
:10024500C933C910D7059BE99A4007EC9BFCE99A8D
:10025500F90FD8E0E4C9FAE4CCFB2275F010EF2FD2
:10026500FFEE33FEED33FDCC33CCC833C810D707D2
:100275009BEC9AE899400AED9BFDEC9AFCE899F80D
:0E0285000FD5F0DAE4CDFBE4CCFAE4C8F922A0
:00000001FF
