:10083000C2B5C2B7D2B67580FFD2B52087F2C2B5B5
:010840002295
:10084100120830EF24FF92B7C2B68D80D2B5C2B57F
:010851002284
:02071200AE0532
:100714007C10BF660474082CFCD3EE648094804083
:100724000674042CFC8004EEF404FEEE600AAD04AE
:08073400E4FF1208411E80F3EE
:01073C00229A
:10085200ED600474402FFFEF2480FDE4FF020841A5
:07088E007D01E4FF020841B7
:060764008B658A668967BF
:10076A00E4FEAB65AA66A967EEFD3395E08D82F5D6
:0F077A00831200FCFD60087F011208410E80E32E
:01078900224D
:0806E5008B5E8A5F8960AF059E
:1006ED00E4FEAD62120852AB5EAA5FA960EEFD3367
:1006FD0095E08D82F5831200FCFD60087F011208E4
:04070D00410E80E336
:0107110022C5
:07089500AD077F01020841DD
:10081E00AE07AC03AF05AD04120852AD067F010260
:02082E0008417F
:0805D7008F618E608D5F8C5E68
:1005DF00856264AD63AF64120852E47B0AFAF9F8DE
:1005EF00AF61AE60AD5FAC5E12062DEB2430FD7FC8
:1005FF00011208411564AF61AE60AD5FAC5EE47B84
:10060F000AFAF9F812062D8F618E608D5F8C5EEC01
:0E061F004D4E4F70BE0562AF62AD63020852D1
:1007EB007D3CE4FF1208417D061208417D0E120884
:0B07FB004112088E7D02E4FF0208415D
:10049A002020202020202020202020202020202052
:1004AA00005265637420202020413D202020566F91
:1004BA006C005472696120202020413D2020205682
:1004CA006F6C0073696E6520202020413D2020203A
:1004DA00566F6C00463D202020202020204B487A71
:1004EA0000576176652053656C6563740053696EC5
:1004FA00652057617665004465636F2057617665AC
:10050A000054726961205761766500312E53696E15
:10051A0020322E44656320332E5472690046726578
:10052A007175656E636520536574004B487A0041A6
:10053A006D706C652053657474696E6700566F6CD4
:01054A0000B0
:100671000108002026142020202020576176653BA8
:10068100463D20202020204B487A3B413D20202020
:10069100566F6C20202000000000000001130004B0
:0D06A1000F00000000060901000003E8053D
:030003000203CB2A
:1003CB00C0E0C0F0C083C082C0D075D000C000C0F8
:0D03DB0001C002C003C004C005C006C00779
:1003E8001207CD1206AF8F3AE53AD3940A401F742C
:1003F800EC253AF53AB4040512073D8003853A081E
:10040800751200751100751000750F008061E50800
:10041800605DB4010CE4853A12F511F510F50F8012
:100428004E7FFF7EC97D9A7C3BAB12AA11A910A80A
:100438000FD3120178E44006FFFEFDFC80297F0AF5
:10044800FEFDFCAB12AA11A910A80F120129A804DD
:10045800A905AA06AB07E4FCFDFEEB253AFFEE3A38
:10046800FEED39FDEC38FC8F128E118D108C0F12B9
:0704780002967F011207ACA0
:10047F00D007D006D005D004D003D002D001D000D1
:0B048F00D0D0D082D083D0F0D0E0327B
:10073D00E50824FE600C146017240270168512095A
:10074D00801185120D85110C85100B850F0A800304
:07075D0085120EE4F50822ED
:100296007BFF7A04799AE4F562FD1206E57BFF7A24
:1002A60004799A756201E4FD1206E5E508146067B3
:1002B60014700302037314700302039B2403600388
:1002C6000203C7E50924FD600B0470107BFF7A0466
:1002D60079AB800E7BFF7A0479BC80067BFF7A04BB
:1002E60079CDE4F562FD1206E57BFF7A0479DE75C9
:1002F6006201E4FD1206E5AF0EEF3395E0FEFDFC6C
:1003060075620CE4F5631205D7AF0DAE0CAD0BAC00
:100316000A7562080203C17BFF7A0479EBE4F56291
:10032600FD1206E5AC0FAD10AE11AF1212018E0331
:100336004B00000001035300000002035B000000B5
:1003460003000003637BFF7A0479F780167BFF7A4C
:10035600057901800E7BFF7A05790B80067BFF7A93
:10036600057915756201E4FD1206E580547BFF7A76
:10037600057927E4F562FD1206E57BFF7A057935F6
:100386007562017D0D1206E5AF12AE11AD10AC0F10
:1003960075620C80267BFF7A057939E4F562FD12D9
:1003A60006E57BFF7A0579477562017D0D1206E544
:1003B600AF12AE11AD10AC0F75620C75630112056C
:0503C600D7E4F513224D
:0E087200D2A8D2B8D28AE4F598D2ACD2AF2286
:10080600AD07AC06C2B38C993099FDC299EDF59946
:080816003099FDC299D2B32212
:0E0880001207EB1208727590F012029680FEBD
:1007AC00EF601D7DC87C007BC87A00EB1B70011AC2
:1007BC00EB4A70F7ED1D70011CED4C70EA1F80E0E8
:0107CC00220A
:0F086200EF4E600B7D28DDFEEF1F70F41E80F15E
:010871002264
:10078A00EE01DE02BE037E15ED06DD05BD047D1613
:10079A00EB07DB08BB097B17E70AD700B714771802
:0207AA0000420B
:0206AF008F3B7F
:1006B100783C7C007D007BFF7A07798A7E007F226F
:1006C1001200D67F10EF25E0243CF8E6B53B09EF98
:1006D10025E0243DF8E6FF221FC3EF64809480509B
:0306E100E47F00B3
:0106E40022F3
:1007CD007F08EF6013F4F590E590C4540FFEBE0F53
:0D07DD0007EFA2E713FF80EAAF907590F0E0
:0107EA0022EC
:0300000002054BAB
:0C054B00787FE4F6D8FD75816702059208
:10000600E709F608DFFA8046E709F208DFFA803EDC
:1000160088828C83E709F0A3DFFA8032E309F608C9
:10002600DFFA8078E309F208DFFA807088828C8331
:10003600E309F0A3DFFA806489828A83E0A3F608E5
:10004600DFFA805889828A83E0A3F208DFFA804CBF
:1000560080D280FA80C680D4806980F28033801096
:1000660080A680EA809A80A880DA80E280CA8033FF
:1000760089828A83ECFAE493A3C8C582C8CCC58377
:10008600CCF0A3C8C582C8CCC583CCDFE9DEE78047
:100096000D89828A83E493A3F608DFF9ECFAA9F0C6
:1000A600EDFB2289828A83ECFAE0A3C8C582C8CC1C
:1000B600C583CCF0A3C8C582C8CCC583CCDFEADE35
:1000C600E880DB89828A83E493A3F208DFF980CC97
:1000D60088F0EF60010E4E60C388F0ED2402B40490
:1000E6000050B9F582EB2402B4040050AF23234537
:0600F60082239000567306
:1000FC00BB010CE58229F582E5833AF583E02250B9
:10010C0006E92582F8E622BBFE06E92582F8E22202
:0D011C00E58229F582E5833AF583E493221C
:10012900E88FF0A4CC8BF0A42CFCE98EF0A42CFC75
:100139008AF0EDA42CFCEA8EF0A4CDA8F08BF0A4F3
:100149002DCC3825F0FDE98FF0A42CCD35F0FCEB52
:100159008EF0A4FEA9F0EB8FF0A4CFC5F02ECD3917
:0F016900FEE43CFCEAA42DCE35F0FDE43CFC2284
:10062D00C2D5E830E70FB2D5E4C39BFBE49AFAE4F8
:10063D0099F9E498F8EC30E717B2D5120663120277
:10064D0004E4C39BFBE49AFAE499F9E498F8800377
:10065D0012020430D50DE4C39FFFE49EFEE49DFD20
:04066D00E49CFC22EB
:10017800EB9FF5F0EA9E42F0E99D42F0EC6480C8FE
:0601880064809845F0229E
:10018E00D083D082E4937012740193700DA3A39365
:10019E00F8740193F5828883E4737402936C701281
:1001AE007403936D700C7404936E70067405936FE4
:0A01BE0060DDA3A3A3A3A3A380CADE
:10055700020880E493A3F8E493A34003F68001F232
:1005670008DFF48029E493A3F85407240CC8C333A5
:10057700C4540F4420C8834004F456800146F6DF74
:10058700E4800B0102040810204080900671E47E8D
:10059700019360BCA3FF543F30E509541FFEE49369
:1005A700A360010ECF54C025E060A840B8E493A330
:1005B700FAE493A3F8E493A3C8C582C8CAC583CA5B
:1005C700F0A3C8C582C8CAC583CADFE9DEE780BE13
:0106AE00004B
:1001C80075F008758200EF2FFFEE33FECD33CDCCEE
:1001D80033CCC58233C5829BED9AEC99E582984071
:1001E8000CF582EE9BFEED9AFDEC99FC0FD5F0D64E
:1001F800E4CEFBE4CDFAE4CCF9A88222B800C1B978
:100208000059BA002DEC8BF084CFCECDFCE5F0CBB5
:10021800F97818EF2FFFEE33FEED33FDEC33FCEBEE
:1002280033FB10D703994004EB99FB0FD8E5E4F9A9
:10023800FA227818EF2FFFEE33FEED33FDEC33FC96
:10024800C933C910D7059BE99A4007EC9BFCE99A8A
:10025800F90FD8E0E4C9FAE4CCFB2275F010EF2FCF
:10026800FFEE33FEED33FDCC33CCC833C810D707CF
:100278009BEC9AE899400AED9BFDEC9AFCE899F80A
:0E0288000FD5F0DAE4CDFBE4CCFAE4C8F9229D
:00000001FF
