:10083300C2B5C2B7D2B67580FFD2B52087F2C2B5B2
:010843002292
:10084400120833EF24FF92B7C2B68D80D2B5C2B579
:010854002281
:10071D00AE057C10BF660474082CFCD3EE64809487
:10072D0080400674042CFC8004EEF404FEEE600A96
:0B073D00AD04E4FF1208441E80F3220C
:10085500ED600474402FFFEF2480FDE4FF0208449F
:07087D007D01E4FF020844C5
:100748008B608A618962E4FEAB60AA61A962EEFDF2
:100758003395E08D82F5831200F9FD60087F011260
:0607680008440E80E322AC
:1006F0008B3D8A3E893FAF05E4FEAD41120855AB04
:100700003DAA3EA93FEEFD3395E08D82F5831200B0
:0D071000F9FD60087F011208440E80E3220D
:07088400AD077F01020844EB
:10082100AE07AC03AF05AD04120855AD067F01025A
:02083100084479
:1005AC008F408E3F8D3E8C3D854143AD42AF431213
:1005BC000855E47B0AFAF9F8AF40AE3FAD3EAC3DCE
:1005CC00120602EB2430FD7F011208441543AF40A4
:1005DC00AE3FAD3EAC3DE47B0AFAF9F81206028F51
:1005EC00408E3F8D3E8C3DEC4D4E4F70BE0541AF65
:0605FC0041AD420208556A
:1007EF007D3CE4FF1208447D061208447D0E12087A
:0B07FF004412087D7D02E4FF02084464
:1003CC002020202020202020202020202020202021
:1003DC00005265637420202020413D202020566F60
:1003EC006C005472696120202020413D2020205651
:1003FC006F6C0073696E6520202020413D20202009
:10040C00566F6C00463D202020202020204B487A3F
:10041C0000576176652053656C65637400526563A3
:10042C007420576176650054726961205761766556
:10043C000053696E65205761766500312E526563F5
:10044C0020322E54726920332E53696E0046726529
:10045C007175656E636520536574004B487A004175
:10046C006D706C652053657474696E6700566F6CA3
:01047C00007F
:100646000108002026142020202020576176653BD3
:10065600463D20202020204B487A3B413D2020204B
:10066600566F6C20202000000000000001130004DB
:0D0676000F00000000060901000003E80568
:10068400E50824FE601414602624027025851209EE
:1006940053A0FCE5091442A0801885120D85110CA5
:1006A40085100B850F0AAE0CAF0D120790800385E1
:0606B400120EE4F508221D
:100293007BFF7A0379CCE4F541FD1206F07BFF7A0C
:1002A3000379CC754101E4FD1206F0E50814606B97
:1002B30014700302037414700302039C2403600389
:1002C3000203C8E50924FE600F1460142402701DA4
:1002D3007BFF7A0379DD800E7BFF7A0379EE80065C
:1002E3007BFF7A0379FFE4F541FD1206F07BFF7A89
:1002F300047910754101E4FD1206F0AF0EEF33955A
:10030300E0FEFDFC75410CE4F5421205ACAF0DAE09
:100313000CAD0BAC0A7541080203C27BFF7A04796A
:100323001DE4F541FD1206F0AC0FAD10AE11AF1296
:1003330012018B034C000000010354000000020370
:100343005C00000003000003647BFF7A04792980CA
:10035300167BFF7A047933800E7BFF7A04793D8024
:10036300067BFF7A047947754101E4FD1206F080AC
:10037300547BFF7A047959E4F541FD1206F07BFFC3
:100383007A0479677541017D0D1206F0AF12AE1143
:10039300AD10AC0F75410C80267BFF7A04796BE4BA
:1003A300F541FD1206F07BFF7A0479797541017DF1
:1003B3000D1206F0AF12AE11AD10AC0F75410C75F6
:0903C30042011205ACE4F513221D
:08087500E4F598D2ACD2AF22E9
:10080A00E4FEFDEE25E0FEEF54012EFEEFC313FFDA
:07081A000DBD08EFAF06223F
:10079000AB07AA06C2B3AF0212080A8F993099FDBF
:1007A000C299AF0312080A8F993099FDC299D2B34A
:0107B0002226
:10047D001207EF1208757590F01202931207D2123F
:10048D0006BA8F3AE53A644660F2E53AD3940A40EB
:10049D001674EC253AF53AB40405120684800385EA
:1004AD003A08E4F512800BE508605DB4010CE485B3
:1004BD003A12F511F510F50F804E7FFF7EE07DF5B8
:1004CD007C05AB12AA11A910A80FD3120175E44037
:1004DD0006FFFEFDFC80297F0AFEFDFCAB12AA1172
:1004ED00A910A80F120126A804A905AA06AB07E4B6
:1004FD00FCFDFEEB253AFFEE3AFEED39FDEC38FC46
:10050D008F128E118D108C0F1202937F011207B175
:03051D000204894C
:1007B100EF601D7DC87C007BC87A00EB1B70011ABD
:1007C100EB4A70F7ED1D70011CED4C70EA1F80E0E3
:0107D1002205
:10086500EF4E600B7D28DDFEEF1F70F41E80F12238
:10076E00EE01DE02BE037E15ED06DD05BD047D162F
:10077E00EB07DB08BB097B17E70AD700B71477181E
:02078E00004623
:1006BA008F3D783E7C007D007BFF7A07796E7E0055
:1006CA007F221200D37F10EF25E0243EF8E6B53DE5
:1006DA0009EF25E0243FF8E6FF221FC3EF64809468
:0606EA008050E47F46226F
:1007D2007F08EF6012F4F590E590C4540FFEBE0F4F
:0D07E20006EFC313FF80EBAF907590F0227F
:03000000020520D6
:0C052000787FE4F6D8FD75816202056763
:10000300E709F608DFFA8046E709F208DFFA803EDF
:1000130088828C83E709F0A3DFFA8032E309F608CC
:10002300DFFA8078E309F208DFFA807088828C8334
:10003300E309F0A3DFFA806489828A83E0A3F608E8
:10004300DFFA805889828A83E0A3F208DFFA804CC2
:1000530080D280FA80C680D4806980F28033801099
:1000630080A680EA809A80A880DA80E280CA803302
:1000730089828A83ECFAE493A3C8C582C8CCC5837A
:10008300CCF0A3C8C582C8CCC583CCDFE9DEE7804A
:100093000D89828A83E493A3F608DFF9ECFAA9F0C9
:1000A300EDFB2289828A83ECFAE0A3C8C582C8CC1F
:1000B300C583CCF0A3C8C582C8CCC583CCDFEADE38
:1000C300E880DB89828A83E493A3F208DFF980CC9A
:1000D30088F0EF60010E4E60C388F0ED2402B40493
:1000E3000050B9F582EB2402B4040050AF2323453A
:0600F3008223900053730C
:1000F900BB010CE58229F582E5833AF583E02250BC
:1001090006E92582F8E622BBFE06E92582F8E22205
:0D011900E58229F582E5833AF583E493221F
:10012600E88FF0A4CC8BF0A42CFCE98EF0A42CFC78
:100136008AF0EDA42CFCEA8EF0A4CDA8F08BF0A4F6
:100146002DCC3825F0FDE98FF0A42CCD35F0FCEB55
:100156008EF0A4FEA9F0EB8FF0A4CFC5F02ECD391A
:0F016600FEE43CFCEAA42DCE35F0FDE43CFC2287
:10060200C2D5E830E70FB2D5E4C39BFBE49AFAE423
:1006120099F9E498F8EC30E717B2D51206381202CD
:1006220001E4C39BFBE49AFAE499F9E498F88003A5
:1006320012020130D50DE4C39FFFE49EFEE49DFD4E
:04064200E49CFC2216
:10017500EB9FF5F0EA9E42F0E99D42F0EC6480C801
:0601850064809845F022A1
:10018B00D083D082E4937012740193700DA3A39368
:10019B00F8740193F5828883E4737402936C701284
:1001AB007403936D700C7404936E70067405936FE7
:0A01BB0060DDA3A3A3A3A3A380CAE1
:10052C0002047DE493A3F8E493A34003F68001F264
:10053C0008DFF48029E493A3F85407240CC8C333D0
:10054C00C4540F4420C8834004F456800146F6DF9F
:10055C00E4800B0102040810204080900646E47EE3
:10056C00019360BCA3FF543F30E509541FFEE49394
:10057C00A360010ECF54C025E060A840B8E493A35B
:10058C00FAE493A3F8E493A3C8C582C8CAC583CA86
:10059C00F0A3C8C582C8CAC583CADFE9DEE780BE3E
:010683000076
:1001C50075F008758200EF2FFFEE33FECD33CDCCF1
:1001D50033CCC58233C5829BED9AEC99E582984074
:1001E5000CF582EE9BFEED9AFDEC99FC0FD5F0D651
:1001F500E4CEFBE4CDFAE4CCF9A88222B800C1B97B
:100205000059BA002DEC8BF084CFCECDFCE5F0CBB8
:10021500F97818EF2FFFEE33FEED33FDEC33FCEBF1
:1002250033FB10D703994004EB99FB0FD8E5E4F9AC
:10023500FA227818EF2FFFEE33FEED33FDEC33FC99
:10024500C933C910D7059BE99A4007EC9BFCE99A8D
:10025500F90FD8E0E4C9FAE4CCFB2275F010EF2FD2
:10026500FFEE33FEED33FDCC33CCC833C810D707D2
:100275009BEC9AE899400AED9BFDEC9AFCE899F80D
:0E0285000FD5F0DAE4CDFBE4CCFAE4C8F922A0
:00000001FF
