:1008BD00C2B5C2B7D2B67580FFD2B52087F2C2B528
:0108CD002208
:1008CE001208BDEF24FF92B7C2B68D80D2B5C2B565
:0108DE0022F7
:1007A700AE057C10BF660474082CFCD3EE648094FD
:1007B70080400674042CFC8004EEF404FEEE600A0C
:0B07C700AD04E4FF1208CE1E80F322F8
:1008DF00ED600474402FFFEF2480FDE4FF0208CE8B
:070907007D01E4FF0208CEB0
:1007D2008B618A628963E4FEAB61AA62A963EEFD62
:1007E2003395E08D82F5831200F9FD60087F0112D6
:0607F20008CE0E80E32298
:10077A008B3E8A3F8940AF05E4FEAD421208DFABEB
:10078A003EAA3FA940EEFD3395E08D82F583120023
:0D079A00F9FD60087F011208CE0E80E322F9
:07090E00AD077F010208CED6
:1008AB00AE07AC03AF05AD041208DFAD067F010246
:0208BB0008CE65
:100613008F418E408D3F8C3E854244AD43AF4412A3
:1006230008DFE47B0AFAF9F8AF41AE40AD3FAC3ED8
:100633001206BFEB2430FD7F011208CE1544AF41F3
:10064300AE40AD3FAC3EE47B0AFAF9F81206BF8F29
:10065300418E408D3F8C3EEC4D4E4F70BE0542AFF8
:0606630042AD430208DF76
:100879007D3CE4FF1208CE7D061208CE7D0E1208DB
:0B088900CE1209077D02E4FF0208CE3A
:10040F0020202020202020202020202020202020DD
:10041F00005265637420202020413D202020566F1C
:10042F006C005472696120202020413D202020560D
:10043F006F6C0073696E6520202020413D202020C5
:10044F00566F6C00463D202020202020204B487AFC
:10045F0000463D2020202020202020487A00576190
:10046F0076652053656C656374005265637420571D
:10047F006176650054726961205761766500536932
:10048F006E65205761766500312E52656320322EDE
:10049F0054726920332E53696E004672657175650B
:1004AF006E636520536574004B487A0020487A00CC
:1004BF00416D706C652053657474696E6700566F7B
:0204CF006C00BF
:100703000108002026152020202020576176653B14
:10071300463D20202020204B487A3B413D2020208D
:10072300566F6C2020200000000000000113000120
:100733001400040F00000000060903000003E8058D
:10066900E50824FE601414604624027045851209C9
:1006790053A0FCE5091442A08038E514601CE47F0E
:10068900E87E03FDFCAB12AA11A910A80F120126DE
:100699008F0D8E0C8D0B8C0A800C85120D85110C1B
:1006A90085100B850F0AAE0CAF0D12081A80038551
:0606B900120EE4F5082218
:100293007BFF7A04790FE4F542FD12077A7BFF7A3C
:1002A30004790F754201E4FD12077AE5081470031F
:1002B3000203571470030203AD1470030203DF2417
:1002C30003600302040BE50924FE600F1460142489
:1002D30002701D7BFF7A047920800E7BFF7A0479FC
:1002E3003180067BFF7A047942E4F542FD12077AF6
:1002F300AF0EEF3395E0FEFDFC75420CE4F54312BF
:1003030006137F407E427D0F7C00AB0DAA0CA90B28
:10031300A80AD31201757BFF40207A0479537542F2
:1003230001E4FD12077AE47BE87A03F9F8AF0DAE36
:100333000CAD0BAC0A1206BF80147A0479607542C7
:1003430001E4FD12077AAF0DAE0CAD0BAC0A75429A
:10035300080204057BFF7A04796DE4F542FD120778
:100363007AAC0FAD10AE11AF1212018B03850000F2
:100373000001038D0000000203950000000300004C
:10038300039D7BFF7A04797980167BFF7A04798356
:10039300800E7BFF7A04798D80067BFF7A04799740
:1003A300754201E4FD12077A805E7BFF7A0479A926
:1003B300E4F542FD12077AE5147BFF60067A0479BF
:1003C300B780047A0479BB7542017D0D12077AAFB9
:1003D30012AE11AD10AC0F75420C80267BFF7A0470
:1003E30079BFE4F542FD12077A7BFF7A0479CD7574
:1003F30042017D0D12077AAF12AE11AD10AC0F752D
:0C040300420C754301120613E4F51322AD
:0808FF00E4F598D2ACD2AF225F
:10089400E4FEFDEE25E0FEEF54012EFEEFC313FF50
:0708A4000DBD08EFAF0622B5
:10081A00AB07AA06C2B3AF021208948F993099FDAA
:10082A00C299AF031208948F993099FDC299D2B335
:01083A00229B
:1004D1001208791208FF7590F012029312085C124B
:1004E10007448F3BE53B644660F2E53BD3940A4009
:1004F1002974EC253BF53BB4050EE51470047F012E
:1005010080027F008F14800DE53BB404051206695B
:100511008003853B08E4F512800BE508605DB401BA
:100521000CE4853B12F511F510F50F804E7FFF7E2F
:10053100E07DF57C05AB12AA11A910A80FD3120119
:1005410075E44006FFFEFDFC80297F0AFEFDFCAB41
:1005510012AA11A910A80F120126A804A905AA061A
:10056100AB07E4FCFDFEEB253BFFEE3AFEED39FD6A
:10057100EC38FC8F128E118D108C0F1202937F01BB
:0605810012083B0204DD3C
:10083B00EF601D7DC87C007BC87A00EB1B70011A32
:10084B00EB4A70F7ED1D70011CED4C70EA1F80E058
:01085B00227A
:1008EF00EF4E600B7D28DDFEEF1F70F41E80F122AE
:1007F800EE01DE02BE037E15ED06DD05BD047D16A5
:10080800EB07DB08BB097B17E719D700B714771884
:02081800004698
:100744008F3E783F7C007D007BFF7A0779F87E003E
:100754007F221200D37F10EF25E0243FF8E6B53E58
:1007640009EF25E02440F8E6FF221FC3EF648094DC
:060774008050E47F4622E4
:10085C007F08EF6012F4F590E590C4540FFEBE0FC4
:0D086C0006EFC313FF80EBAF907590F022F4
:030000000205876F
:0C058700787FE4F6D8FD7581630205CE94
:10000300E709F608DFFA8046E709F208DFFA803EDF
:1000130088828C83E709F0A3DFFA8032E309F608CC
:10002300DFFA8078E309F208DFFA807088828C8334
:10003300E309F0A3DFFA806489828A83E0A3F608E8
:10004300DFFA805889828A83E0A3F208DFFA804CC2
:1000530080D280FA80C680D4806980F28033801099
:1000630080A680EA809A80A880DA80E280CA803302
:1000730089828A83ECFAE493A3C8C582C8CCC5837A
:10008300CCF0A3C8C582C8CCC583CCDFE9DEE7804A
:100093000D89828A83E493A3F608DFF9ECFAA9F0C9
:1000A300EDFB2289828A83ECFAE0A3C8C582C8CC1F
:1000B300C583CCF0A3C8C582C8CCC583CCDFEADE38
:1000C300E880DB89828A83E493A3F208DFF980CC9A
:1000D30088F0EF60010E4E60C388F0ED2402B40493
:1000E3000050B9F582EB2402B4040050AF2323453A
:0600F3008223900053730C
:1000F900BB010CE58229F582E5833AF583E02250BC
:1001090006E92582F8E622BBFE06E92582F8E22205
:0D011900E58229F582E5833AF583E493221F
:10012600E88FF0A4CC8BF0A42CFCE98EF0A42CFC78
:100136008AF0EDA42CFCEA8EF0A4CDA8F08BF0A4F6
:100146002DCC3825F0FDE98FF0A42CCD35F0FCEB55
:100156008EF0A4FEA9F0EB8FF0A4CFC5F02ECD391A
:0F016600FEE43CFCEAA42DCE35F0FDE43CFC2287
:1006BF00C2D5E830E70FB2D5E4C39BFBE49AFAE466
:1006CF0099F9E498F8EC30E717B2D51206F5120253
:1006DF0001E4C39BFBE49AFAE499F9E498F88003E8
:1006EF0012020130D50DE4C39FFFE49EFEE49DFD91
:0406FF00E49CFC2259
:10017500EB9FF5F0EA9E42F0E99D42F0EC6480C801
:0601850064809845F022A1
:10018B00D083D082E4937012740193700DA3A39368
:10019B00F8740193F5828883E4737402936C701284
:1001AB007403936D700C7404936E70067405936FE7
:0A01BB0060DDA3A3A3A3A3A380CAE1
:100593000204D1E493A3F8E493A34003F68001F2A9
:1005A30008DFF48029E493A3F85407240CC8C33369
:1005B300C4540F4420C8834004F456800146F6DF38
:1005C300E4800B0102040810204080900703E47EBE
:1005D300019360BCA3FF543F30E509541FFEE4932D
:1005E300A360010ECF54C025E060A840B8E493A3F4
:1005F300FAE493A3F8E493A3C8C582C8CAC583CA1F
:10060300F0A3C8C582C8CAC583CADFE9DEE780BED6
:0107430000B5
:1001C50075F008758200EF2FFFEE33FECD33CDCCF1
:1001D50033CCC58233C5829BED9AEC99E582984074
:1001E5000CF582EE9BFEED9AFDEC99FC0FD5F0D651
:1001F500E4CEFBE4CDFAE4CCF9A88222B800C1B97B
:100205000059BA002DEC8BF084CFCECDFCE5F0CBB8
:10021500F97818EF2FFFEE33FEED33FDEC33FCEBF1
:1002250033FB10D703994004EB99FB0FD8E5E4F9AC
:10023500FA227818EF2FFFEE33FEED33FDEC33FC99
:10024500C933C910D7059BE99A4007EC9BFCE99A8D
:10025500F90FD8E0E4C9FAE4CCFB2275F010EF2FD2
:10026500FFEE33FEED33FDCC33CCC833C810D707D2
:100275009BEC9AE899400AED9BFDEC9AFCE899F80D
:0E0285000FD5F0DAE4CDFBE4CCFAE4C8F922A0
:00000001FF
