:10088300C2B5C2B7D2B67580FFD2B52087F2C2B562
:010893002242
:10089400120883EF24FF92B7C2B68D80D2B5C2B5D9
:0108A4002231
:02073F00AE0505
:100741007C10BF660474082CFCD3EE648094804056
:100751000674042CFC8004EEF404FEEE600AAD0481
:08076100E4FF1208941E80F36E
:01076900226D
:1008A500ED600474402FFFEF2480FDE4FF020894FF
:0708C5007D01E4FF0208942D
:0607BC008B648A6589666A
:1007C200E4FEAB64AA65A966EEFD3395E08D82F581
:0F07D200831200FCFD60087F011208940E80E383
:0107E10022F5
:080712008B5F8A608961AF056D
:10071A00E4FEAD631208A5AB5FAA60A961EEFD33E2
:10072A0095E08D82F5831200FCFD60087F011208B6
:04073A00940E80E3B6
:01073E002298
:0708CC00AD077F0102089453
:10087100AE07AC03AF05AD041208A5AD067F0102BA
:020881000894D9
:080604008F3F8E3E8D3D8C3CC2
:10060C00854042AD41AF421208A5E47B0AFAF9F8E5
:10061C00AF3FAE3EAD3DAC3C12065AEB2430FD7FF5
:10062C00011208941542AF3FAE3EAD3DAC3CE47BAD
:10063C000AFAF9F812065A8F3F8E3E8D3D8C3CEC2F
:0E064C004D4E4F70BE0540AF40AD410208A5B7
:100843007D3CE4FF1208947D061208947D0F120884
:0B085300941208C57D02E4FF02089427
:1004BA002020202020202020202020202020202032
:1004CA00005265637420202020413D202020566F71
:1004DA006C005472696120202020413D2020205662
:1004EA006F6C0073696E6520202020413D2020201A
:1004FA00566F6C00463D202020202020204B487A51
:10050A0000576176652053656C6563740053696EA4
:10051A00652057617665004465636F20576176658B
:10052A000054726961205761766500312E53696EF5
:10053A0020322E44656320332E5472690046726558
:10054A007175656E636520536574004B487A004186
:10055A006D706C652053657474696E6700566F6CB4
:0E056A000048656C6C6F2C41746875726700F8
:10069E000108002026142020202020576176653B7B
:1006AE00463D20202020204B487A3B413D202020F3
:1006BE00566F6C2020200000000000000113000483
:0D06CE000F00000000060901000003E80510
:030003000203CB2A
:1003CB00C0E0C0F0C083C082C0D075D000C000C0F8
:0D03DB0001C002C003C004C005C006C00779
:1003E8001208251206DCEF3395E0F53A8F3BD3E58A
:1003F8003B940AE53A64809480402A74EC253BF5E6
:100408003B74FF353AF53AE53B6404453A7005120A
:1004180007958003853B087512007511007510005B
:10042800750F00806AE5086066B40111AE3AEE33D4
:1004380095E0853B128E11F510F50F80527FFF7EF7
:10044800C97D9A7C3BAB12AA11A910A80FD312013F
:1004580078E44006FFFEFDFC802D7F0AFEFDFCAB24
:1004680012AA11A910A80F120129A804A905AA0601
:10047800AB07AE3AEE3395E0FDFCEB253BFFEA3ED9
:10048800FEE93DFDE83CFC8F128E118D108C0F1299
:0704980002967F0112080427
:10049F00D007D006D005D004D003D002D001D000B1
:0B04AF00D0D0D082D083D0F0D0E0325B
:10079500E50824FE600C1460172402701685120902
:1007A500801185120D85110C85100B850F0A8003AC
:0707B50085120EE4F5082295
:100296007BFF7A0479BAE4F563FD1207127BFF7AD5
:1002A6000479BA756301E4FD120712E50814606764
:1002B60014700302037314700302039B2403600388
:1002C6000203C7E50924FD600B0470107BFF7A0466
:1002D60079CB800E7BFF7A0479DC80067BFF7A047B
:1002E60079EDE4F563FD1207127BFF7A0479FE755A
:1002F6006301E4FD120712AF0EEF3395E0FEFDFC3D
:1003060075400CE4F541120604AF0DAE0CAD0BAC16
:100316000A7540080203C17BFF7A05790BE4F56391
:10032600FD120712AC0FAD10AE11AF1212018E0303
:100336004B00000001035300000002035B000000B5
:1003460003000003637BFF7A05791780167BFF7A2B
:10035600057921800E7BFF7A05792B80067BFF7A53
:10036600057935756301E4FD12071280547BFF7A27
:10037600057947E4F563FD1207127BFF7A05795587
:100386007563017D0D120712AF12AE11AD10AC0FE1
:1003960075400C80267BFF7A057959E4F563FD12DA
:1003A60007127BFF7A0579677563017D0D120712C7
:1003B600AF12AE11AD10AC0F75400C7541011206AF
:0503C60004E4F5132220
:10085E00D2A8C2AAC2A9C2ABC2ACD2B8C2B9C28A0D
:03086E00D2AF22E4
:10076A0012084312085E7590F07BFF7A05796BE4F4
:10077A00F563FD1207127F011208047BFF7A0579DF
:0B078A006B756301E4FD12071280FE96
:10080400EF601D7DC87C007BC87A00EB1B70011A69
:10081400EB4A70F7ED1D70011CED4C70EA1F80E08F
:0108240022B1
:0F08B500EF4E600B7D28DDFEEF1F70F41E80F10B
:0108C4002211
:1007E200EE01DE02BE037E15ED06DD05BD047D16BB
:1007F200EB07DB08BB097B17E70AD700B7147718AA
:020802000042B2
:0206DC008F3C51
:1006DE00783D7C007D007BFF7A0779E27E007F22E9
:1006EE001200D67F10EF25E0243DF8E6B53C09EF69
:1006FE0025E0243EF8E6FF221FC3EF64809480506D
:03070E00E47F0085
:0107110022C5
:100825007F08EF6013F4F590E590C4540FFEBE0FFA
:0D08350007EFA2E713FF80EAAF907590F087
:010842002293
:030000000205787E
:0C057800787FE4F6D8FD7581660205BFAF
:10000600E709F608DFFA8046E709F208DFFA803EDC
:1000160088828C83E709F0A3DFFA8032E309F608C9
:10002600DFFA8078E309F208DFFA807088828C8331
:10003600E309F0A3DFFA806489828A83E0A3F608E5
:10004600DFFA805889828A83E0A3F208DFFA804CBF
:1000560080D280FA80C680D4806980F28033801096
:1000660080A680EA809A80A880DA80E280CA8033FF
:1000760089828A83ECFAE493A3C8C582C8CCC58377
:10008600CCF0A3C8C582C8CCC583CCDFE9DEE78047
:100096000D89828A83E493A3F608DFF9ECFAA9F0C6
:1000A600EDFB2289828A83ECFAE0A3C8C582C8CC1C
:1000B600C583CCF0A3C8C582C8CCC583CCDFEADE35
:1000C600E880DB89828A83E493A3F208DFF980CC97
:1000D60088F0EF60010E4E60C388F0ED2402B40490
:1000E6000050B9F582EB2402B4040050AF23234537
:0600F60082239000567306
:1000FC00BB010CE58229F582E5833AF583E02250B9
:10010C0006E92582F8E622BBFE06E92582F8E22202
:0D011C00E58229F582E5833AF583E493221C
:10012900E88FF0A4CC8BF0A42CFCE98EF0A42CFC75
:100139008AF0EDA42CFCEA8EF0A4CDA8F08BF0A4F3
:100149002DCC3825F0FDE98FF0A42CCD35F0FCEB52
:100159008EF0A4FEA9F0EB8FF0A4CFC5F02ECD3917
:0F016900FEE43CFCEAA42DCE35F0FDE43CFC2284
:10065A00C2D5E830E70FB2D5E4C39BFBE49AFAE4CB
:10066A0099F9E498F8EC30E717B2D512069012021D
:10067A0004E4C39BFBE49AFAE499F9E498F880034A
:10068A0012020430D50DE4C39FFFE49EFEE49DFDF3
:04069A00E49CFC22BE
:10017800EB9FF5F0EA9E42F0E99D42F0EC6480C8FE
:0601880064809845F0229E
:10018E00D083D082E4937012740193700DA3A39365
:10019E00F8740193F5828883E4737402936C701281
:1001AE007403936D700C7404936E70067405936FE4
:0A01BE0060DDA3A3A3A3A3A380CADE
:1005840002076AE493A3F8E493A34003F68001F21C
:1005940008DFF48029E493A3F85407240CC8C33378
:1005A400C4540F4420C8834004F456800146F6DF47
:1005B400E4800B010204081020408090069EE47E33
:1005C400019360BCA3FF543F30E509541FFEE4933C
:1005D400A360010ECF54C025E060A840B8E493A303
:1005E400FAE493A3F8E493A3C8C582C8CAC583CA2E
:1005F400F0A3C8C582C8CAC583CADFE9DEE780BEE6
:0106DB00001E
:1001C80075F008758200EF2FFFEE33FECD33CDCCEE
:1001D80033CCC58233C5829BED9AEC99E582984071
:1001E8000CF582EE9BFEED9AFDEC99FC0FD5F0D64E
:1001F800E4CEFBE4CDFAE4CCF9A88222B800C1B978
:100208000059BA002DEC8BF084CFCECDFCE5F0CBB5
:10021800F97818EF2FFFEE33FEED33FDEC33FCEBEE
:1002280033FB10D703994004EB99FB0FD8E5E4F9A9
:10023800FA227818EF2FFFEE33FEED33FDEC33FC96
:10024800C933C910D7059BE99A4007EC9BFCE99A8A
:10025800F90FD8E0E4C9FAE4CCFB2275F010EF2FCF
:10026800FFEE33FEED33FDCC33CCC833C810D707CF
:100278009BEC9AE899400AED9BFDEC9AFCE899F80A
:0E0288000FD5F0DAE4CDFBE4CCFAE4C8F9229D
:00000001FF
