:02009D00AA8235
:07009F00EA60357BC87C001C
:0E00A600C3E49B74808CF063F08095F05020D2
:0400B4007DC87E0085
:0E00B800C3E49D74808EF063F08095F05007D5
:0700C6001DBDFFEE1E80EBE3
:0700CD001BBBFFD51C80D214
:0300D4001A80C8C7
:0100D7002206
:0400D800AA82AB83CA
:0600DC00EA4B60187C28CD
:0E00E200C374808CF063F08095F050031C8096
:0100F000F11E
:0700F1001ABAFFE71B80E4CF
:0100F80022E5
:0900F900AA827527EE7528017535
:0601020029DE752A0275DA
:060108002BBE752C0375EF
:06010E002D7E752E157513
:060114002FED75300475AB
:06011A0031DD75320575B0
:0601200033BD75340675C5
:06012600357D75361675EB
:06012C0037EB7538077582
:0601320039DB753A087587
:060138003BBB753C09759C
:06013E003D7B753E1775C4
:060144003FE77540007565
:06014A0041D775420B7560
:0601500043B775440C7575
:060156004577754618759F
:07015C0047007548467B10C7
:0C016300EB20E716EB2BFC2427F8E6FD50
:0B016F00B50208EC242704F886822269
:03017A001B80E601
:04017D00758246221F
:020181007A08FA
:0E018300EA6013EAF4F590E590C4540FFBBB5C
:080191000F06EAC313FA80EA2D
:08019900AA907590F08A822201
:0E01A100C2B0C2B2D2B175A0FFD2B020A7F298
:0301AF00C2B022B9
:0E01B200AA82C0021201A1D002EA24FF92B27A
:0A01C000C2B18508A0D2B0C2B0227F
:0901CA00AA827B10BA66027B18C0
:0C01D300C374808509F063F08095F05043
:0701DF0006EB2404FB80067F
:0601E600C3E49509F509D0
:0201EC00AA095E
:0C01EE00EA60138B08758200C002C00399
:0A01FA001201B2D003D0021A80EA0D
:0102040022D7
:0A020500AA82E50A600474402AFA98
:0B020F0074802AF5087582000201B21D
:09021A007508017582000201B2B1
:08022300AA82AB83ACF07D0060
:0E022B00ED2AFEE43BFF8C008E828F8388F06C
:0C023900120909FE601B8E08758201C0CE
:0E02450002C003C004C0051201B2D005D004EF
:07025300D003D0020D80D1A1
:01025A002281
:0A025B00AA82AB83ACF0850C0A8583
:0C0265000B82C002C003C004120205D0CE
:0702710004D003D0027D0060
:0E027800ED2AFEE43BFF8C008E828F8388F01F
:0C028600120909FE601B8E08758201C081
:0E02920002C003C004C0051201B2D005D004A2
:0702A000D003D0020D80D154
:0102A7002234
:0902A8008582087582010201B291
:0602B100AA82850E0A85F9
:0A02B7000D82C002120205D0028A77
:0702C100087582010201B281
:0802C80085821185831285F087
:0402D00013F514AE60
:0102D4000F1A
:0802D50085100A8E82C006129A
:0702DD00020575270AE4F594
:0402E40028F529F5DB
:0502E8002A851182854A
:0602ED0012838513F0E509
:0A02F30014120868AF8274302FF572
:0B02FD00087582011201B2D0061E75C8
:06030800270AE4F528F5C8
:04030E0029F52A851E
:06031200118285128385B3
:0703180013F0E514C006120A
:07031F0008B78582118583F8
:050326001285F013F543
:08032B0014D006E511700CE589
:08033300127008E5137004E5E7
:03033B0014600249
:02033E008095A8
:04034000050F851010
:050344000A850F820292
:020349000205AB
:0A034B0075083C7582001201B275BE
:0903550008067582001201B27560
:09035E00080E7582001201B212B2
:09036700021A75080275820002F9
:0203700001B2D8
:0400000002002332A5
:01000B0032C2
:0100130032BA
:03001B000205E8F3
:07007C00751500E4F516F50F
:0400830017F518F560
:0500870019751A017556
:06008C001BE8751C037562
:060092001D00751E007543
:020098001F0542
:03009A0002001E43
:05001E0012063380FE14
:070372007520007521FF75E5
:0603790022FF12034B12EB
:06037F00044985218D8573
:0C038500228B758910D2AFD2ABD28E2231
:070391007401B51502801094
:070398007402B5150280217B
:08039F007403B5150302043ECE
:0103A7002233
:0803A800151674FFB5160C15C3
:0503B00017B517071549
:0503B50018B518021547
:0103BA001929
:0503BB00AA168A1A22B7
:0403C00085161B85FE
:0303C400171C857E
:0303C700181D8579
:0303CA00191EE514
:0703CD0017A2E7C51633C5B6
:0803D4001633A2E7C51633C57C
:0703DC001633C5165403F5AA
:0403E30017E51825DD
:0603E7001825E04517F5A2
:0603ED0017E519A2E7C5A7
:0803F3001833C51833A2E7C559
:0603FB001833C51833C5DC
:0804010018540330E10244FC31
:08040900F51974FFC39516F507
:060411001674FF9517F5BB
:0504170017E49518F543
:05041C0018E49519F53C
:0604210019742A2516F5EE
:0504270016E43517F595
:05042C0017E43518F58E
:0504310018E43519F587
:030436001985160F
:0304390022851702
:02043C0021227B
:0A043E00AA168A1F8A80C2B4D2B445
:010448002291
:0A04490012021AE51524FC5003020C
:0204530005E2C0
:05045500E51525152549
:05045A001590045F7322
:07045F0002046B0204EB0232
:05046600057C0205B059
:07046B00AA1ABA0002800A80
:05047200BA0102801632
:05047700BA02338022EF
:07047C00750B00750C0090E8
:0A04830009E975F08012025B802089
:07048D00750B00750C0090D7
:0A04940009FA75F08012025B800F78
:07049E00750B00750C0090C6
:0804A5000A0B75F08012025BE6
:0A04AD00AA1F7B007C007D00750F84
:0C04B7000C7510008A828B838CF0ED1213
:0604C30002C8750B007574
:0904C9000C01900A1C75F0801270
:0604D200025B750F0875C6
:0604D8001001851B828566
:0604DE001C83851DF0E502
:0504E4001E1202C80217
:0204E90005E22A
:0704EB00750B00750C009079
:0B04F2000A2975F08012025B7401B54E
:0804FD00160EE4B5170AE4B580
:080505001806E4B51902802874
:0A050D007402B5160EE4B5170AE4F7
:09051700B51806E4B519028027AD
:0A0520007403B5160EE4B5170AE4E3
:09052A00B51806E4B5190280269B
:02053300803610
:07053500750B00750C01902D
:09053C000A3575F08012025B0221
:0205450005E2CD
:07054700750B00750C01901B
:09054E000A3F75F08012025B0205
:0205570005E2BB
:07055900750B00750C019009
:090560000A4975F08012025B02E9
:0205690005E2A9
:07056B00750B00750C0190F7
:0A0572000A5375F08012025B8066E8
:07057C00750B00750C0090E7
:090583000A6575F08012025B7537
:06058C000B0D750C01903F
:090592000A7475F08012025B7519
:06059B000F0C7510018534
:0605A10016828517838518
:0505A70018F0E5191237
:0405AC0002C88032CF
:0705B000750B00750C0090B3
:0905B7000A7875F08012025B75F0
:0605C0000B0D750C01900B
:0905C6000A8775F08012025B75D2
:0605CF000F0C7510018500
:0605D500168285178385E4
:0505DB0018F0E5191203
:0205E00002C84F
:0605E20075820102009D7C
:0E05E800C0E0C082C083C002C003C004C0D007
:0A05F60075D000E51A030354C02479
:0706000029FAE43409FBAC08
:0A060700200520EC2AF582E43BF503
:0B06110083E493F5807440B52003756E
:02061C002000BC
:0A061E0085218D85228BD0D0D004F9
:0B062800D003D002D083D082D0E0329B
:030633001203723D
:0D0636001201811200F9AA82BA460280F377
:0C064300EA24EB5013C28EEA24ECF515FB
:06064F00E4F516F517F5B5
:0406550018F5190279
:02065900070692
:0E065B00EA24F55021EA24F5FA600312039117
:06066900E4F516F517F59B
:04066F0018F519F56C
:08067300151204497582011201
:06067B00009DD28E80B547
:07068100E5157003020706F6
:080688007401B5150D8A167509
:060690001700751800754B
:040696001900806C5B
:0A069A00C3749F95167486951774BB
:0A06A40001951874808519F063F0C9
:0E06AE008095F0500A7B007C007D007E00806D
:0106BC0041FC
:0606BD007B008516278575
:0306C30017288570
:0306C6001829856B
:0A06C900192A90000AE4F5F0C002BF
:0A06D300C0031207FA858223858315
:0506DD002485F025F565
:0C06E20026D003D002EBFF3395E0F8F9BE
:0906EE00E5232AFBE5243FFCE5AD
:0706F7002538FDE52639FE60
:0506FE008B168C178D26
:03070300188E1934
:0A07060012044975820112009D02E1
:020710000636AB
:0E0929000000000000000000000000000000C0
:0E0937000000000000000000000000000000B2
:0E0945000000000000000000000000000000A4
:0E095300000000000000000000000000000096
:0E096100000000000000000000000000000088
:0E096F0000000000000000000000000000007A
:0E097D00000000000000000000000000FFFF6E
:0E098B00FFFFFFFFFFFFFFFFFFFFFFFFFFFF6C
:0E099900FFFFFFFFFFFFFFFFFFFFFFFFFFFF5E
:0E09A700FFFF00000000000000000000000044
:0E09B500000000000000000000000000000034
:0E09C300000000000000000000000000000026
:0E09D100000000000000000000000000000018
:0A09DF00000000000000000000000E
:0E09E90053696E6520202020413D20202056BD
:0309F7006F6C0022
:0E09FA005265637420202020413D20202056AD
:030A08006F6C0010
:0E0A0B005472696120202020413D2020205699
:030A19006F6C00FF
:0D0A1C00433D202020202020202075530085
:0C0A2900576176652053656C65637400AE
:0A0A350053696E6520576176650075
:0A0A3F00526563742057617665006C
:0A0A49005472696120576176650060
:0E0A5300312E53696E20322E52656320332EF1
:040A61005472690062
:0E0A65004379636C65202053657474696E6775
:010A73000082
:040A74002075530096
:0E0A7800416D706C65202053657474696E6763
:010A8600006F
:040A8700566F6C003A
:06071200F9E5274528452A
:0807180029452A60777800C32F
:0A07200008E52A20E73BE52725E065
:06072A00F527E52833F578
:0507300028E52933F566
:0507350029E52A33F55F
:08073A002AE5829527E583956D
:0707420028E5F09529E99577
:080749002A50D4C3E52A13F580
:050751002AE52913F563
:0507560029E52813F560
:05075B0028E52713F55D
:010760002771
:0A076100E5829527FCE5839528FD4D
:0A076B00E5F09529FEE9952A400704
:07077500F98EF08D838C82E8
:07077C00C3E52A13F52AE58D
:050783002913F529E532
:050788002813F528E52F
:07078D002713F527D8CEE980
:010794002242
:08079500FB7A20E4FCFDFEFFED
:0E079D00E5822582F582E58333F583E5F033AE
:0B07AB00F5F0EB33FB4017DAE9804269
:0E07B600E5822582F582E58333F583E5F03395
:0507C400F5F0EB33FB32
:0E07C900EC33FCED33FDEE33FEEF33FFEC9529
:0607D70027ED9528EE95C8
:0807DD0029EF952A4013EC9569
:0807E50027FCED9528FDEE95BF
:0907ED0029FEEF952AFF43820169
:0207F600DABE69
:0207F800EB22F2
:06005200E478FFF6D8FD82
:080030007900E94400601B7A2D
:0500380000900A8B7826
:03003D000075A0AB
:0A00400000E493F2A308B8000205E3
:08004A00A0D9F4DAF275A0FF61
:0C07FA00AAF0FBE5828527F0A4FCADF01E
:0C080600E5838527F0A42DFDE435F0FE0D
:0C081200E5828528F0A42DFDE5F03EFEF7
:0C081E00E433FFEA8527F0A42EFEE5F08D
:0C082A003FFFE5838528F0A42EFEE5F0DA
:0C0836003FFFE5828529F0A42EFEE5F0CE
:0B0842003FFFEB8527F0A42FFFEA85A5
:0A084D0028F0A42FFFE5838529F0B1
:0C085700A42FFFE582852AF0A42F8EF06C
:050863008D838C822250
:0400580075A0007817
:07005C0000E8440060077991
:0600630000E4F309D8FCE3
:080069007800E84400600C7906
:0B00710000900000E4F0A3D8FCD9FAD6
:0E086800F9C2D530E715D2D5E4C39582F582EA
:0D087600E49583F583E495F0F5F0E499F93D
:0A088300E52A30E715E4C39527F5D8
:05088D0027E49528F5A9
:0508920028E49529F5A2
:0508970029E4952AF59B
:01089C002A31
:0E089D00E912071230D512E4C39582F582E409
:0B08AB009583F583E495F0F5F0E499E7
:0108B600221F
:0E08B700FBC2D530E715D2D5E4C39582F58299
:0D08C500E49583F583E495F0F5F0E49BFBEA
:0A08D200E52A30E717B2D5E4C3951C
:0508DC0027F527E4955B
:0508E10028F528E49554
:0508E60029F529E4954D
:0308EB002AF52AC1
:0E08EE00EB12079530D513FBE4C39582F5821B
:0C08FC00E49583F583E495F0F5F0E49BAF
:0109080022CC
:030023007581489C
:0A002600120925E582600302001EA6
:0E09090020F71430F6148883A88220F507E644
:06091700A8837583002295
:03091D00E280F77E
:03092000E493223B
:02092300E022D0
:0409250075820022B5
:00000001FF
