:0600000002000B02029356
:10006400752200752300E4F543F544F545F5460291
:02007400000684
:0500060012055780FE09
:10007600AA82EA60357BC87C00C3E49B74808CF05E
:1000860063F08095F050207DC87E00C3E49D7480A7
:100096008EF063F08095F050071DBDFFEE1E80EBDD
:1000A6001BBBFFD51C80D21A80C822C2A2C2A0D216
:1000B600A17580FFD2A22087F2C2A222AA82C2AF75
:1000C600C0021200B1D002C2A0C2A1D2A28A80C2CE
:1000D600A2D2AF22AA82C2AFC0021200B1D002D20F
:1000E600A0C2A1D2A28A80C2A2D2AF221201A67554
:1000F600820A1200C27582061200C275820C1200B4
:10010600C27582381200C275210075820202016E24
:10011600AA82EA6026C374808AF063F08095F05064
:100126000D75821CC0021200C2D0021A80E47582CC
:1001360018C0021200C2D0020A80D722AA82EA6040
:1001460026C374808AF063F08095F0500D75821492
:10015600C0021200C2D0021A80E4758210C00212D8
:1001660000C2D0020A80D722AA82C374908521F0E9
:1001760063F08095F050047B0F8002AB21C374823C
:100186008AF063F08095F050047C0180028A048C2A
:1001960002EB600474402AFA74802AF5820200C2D7
:1001A6007582010200C2AA82AB83ACF07D00ED2A03
:1001B600FEE43BFF8C008E828F8388F012075DFE83
:1001C60060188E82C002C003C004C0051200DAD0D7
:1001D60005D004D003D0020D80D422AA827552EE37
:1001E6007553017554DE7555027556BE7557037500
:1001F600587E755977755AED755B06755CDD755DCC
:1002060005755EBD755F0475607D7561667562EB2B
:100216007563077564DB7565087566BB7567097573
:10022600687B756961756AE7756B0A756CD7756D5C
:1002360000756EB7756F637570777571737B10EBAC
:1002460020E716EB2BFC2452F8E6FDB50208EC2459
:100256005204F88682221B80E675824F227A08EACB
:100266006023EAF4F590E590C4540FFBBB0F16C269
:10027600D575F002EA30E704B2D5F4048430D5022D
:10028600F404FA80DAAA907590F08A8222C020C01F
:10029600E0C0F0C082C083C002C003C004C005C075
:1002A60006C007C000C001C0D075D000120263129C
:1002B60001E1E582FAF5473395E0F548C3740A95FE
:1002C6004774808548F063F08095F05023E522FC62
:1002D6003395E0FDECB54706EDB54802800C854741
:1002E60022E4F543F544F545F5461203C402037AC4
:1002F600E52270030203777477B52210854743E53C
:1003060048F5443395E0F545F5468065C374FF9599
:100316004374C99544749A954574BB8546F063F059
:100326008095F0500A7C007D007E007F00803A8533
:10033600435285445385455485465590000AE4F555
:10034600F012064E85824985834A85F04BF54CAA04
:1003560047E548FB3395E0F8F9E5492AFCE54A3BD1
:10036600FDE54B38FEE54C39FF8C438D448E458FB9
:10037600461204751203A0758201120076D0D0D001
:1003860001D000D007D006D005D004D003D002D0CB
:1003960083D082D0F0D0E0D0203275210075820063
:1003A60012016E90002375F0401201AC75210175A3
:1003B600820012016E90003375F0400201AC746148
:1003C600B5220280567466B5220280377477B5224C
:1003D60002801875520090077D75F08012043975F9
:1003E600520190078E75F08002043975520090070D
:1003F6009F75F0801204397552019007B075F08030
:100406000204397552009007C175F08012043975DF
:1004160052019007D275F080020439755200900798
:10042600E375F0801204397552019007F475F08077
:10043600020439AA82AB83ACF0E552C454F02423FB
:10044600FDE4F553F554E5532DF88A828B838CF041
:1004560012075DFEA3AA82AB83A6060553E4B55335
:100466000205548A828B838CF012075D70D8228530
:10047600434E85444F8545508546517477B52202D3
:1004860080030204E97401B5430EE4B5440AE4B5F9
:100496004506E4B5460280277402B5430EE4B5442A
:1004A6000AE4B54506E4B5460280207403B5430E5A
:1004B600E4B5440AE4B54506E4B54602801922755A
:1004C600520190080575F0800204397552019008B2
:1004D6001675F08002043975520190082775F08070
:1004E6000204397E00C3EE6480948B5009EE2433F7
:1004F600F876200E80EF8E4DE54E454F455045511E
:10050600604EE54D2433F875520AE4F553F554F57B
:1005160055854E82854F838550F0E551C000120601
:10052600BCAF82D00074302FF675520AE4F553F54D
:1005360054F555854E82854F838550F0E551120757
:100546000B85824E85834F85F050F551154D80A859
:10055600221200F2D2AFD2A8D2B8C2887590F02289
:10077D0057656C636F6D6520746F207573652021EF
:10078D00003E3E4D61646520696E205357554E3CC9
:10079D003C003D5761766520547970652020536586
:1007AD00743D00312E73696E20322E66616E2033DA
:1007BD002E7472003D4672657175656E63652020FD
:1007CD005365743D00202020202020202020202053
:1007DD0030204B487A003D416D706C6974756465CD
:1007ED0020205365743D0020202020202020202033
:1007FD0020203020566F6C00312E53696E20202042
:10080D00202020202020202000322E4672657120CD
:10081D0020202020202020202000332E54726920FB
:0B082D00202020202020202020200080
:10056600F9E55245534554455560777800C308E58B
:100576005520E73BE55225E0F552E55333F553E5C3
:100586005433F554E55533F555E5829552E5839593
:1005960053E5F09554E9955550D4C3E55513F555F3
:1005A600E55413F554E55313F553E55213F552E5A7
:1005B600829552FCE5839553FDE5F09554FEE99549
:1005C600554007F98EF08D838C82C3E55513F5559A
:1005D600E55413F554E55313F553E55213F552D884
:1005E600CEE922FB7A20E4FCFDFEFFE5822582F5BA
:1005F60082E58333F583E5F033F5F0EB33FB401703
:10060600DAE98042E5822582F582E58333F583E5E2
:10061600F033F5F0EB33FBEC33FCED33FDEE33FE5C
:10062600EF33FFEC9552ED9553EE9554EF9555400B
:1006360013EC9552FCED9553FDEE9554FEEF955552
:08064600FF438201DABEEB2242
:06003A00E478FFF6D8FD9A
:100018007900E94400601B7A00900838780075A0E0
:1000280000E493F2A308B8000205A0D9F4DAF27547
:02003800A0FF27
:10064E00AAF0FBE5828552F0A4FCADF0E58385525D
:10065E00F0A42DFDE435F0FEE5828553F0A42DFDCA
:10066E00E5F03EFEE433FFEA8552F0A42EFEE5F0FF
:10067E003FFFE5838553F0A42EFEE5F03FFFE582B4
:10068E008554F0A42EFEE5F03FFFEB8552F0A42F2B
:10069E00FFEA8553F0A42FFFE5838554F0A42FFFC6
:0E06AE00E5828555F0A42F8EF08D838C82227C
:100040007800E84400600A790075A000E4F309D85C
:10005000FC7800E84400600C7900900000E4F0A314
:04006000D8FCD9FAF5
:1006BC00F9C2D530E715D2D5E4C39582F582E4951D
:1006CC0083F583E495F0F5F0E499F9E55530E715F9
:1006DC00E4C39552F552E49553F553E49554F5540F
:1006EC00E49555F555E912056630D512E4C39582AB
:1006FC00F582E49583F583E495F0F5F0E49922FB1B
:10070C00C2D530E715D2D5E4C39582F582E4958342
:10071C00F583E495F0F5F0E49BFBE55530E717B273
:10072C00D5E4C39552F552E49553F553E49554F53D
:10073C0054E49555F555EB1205E930D513FBE4C39C
:10074C009582F582E49583F583E495F0F5F0E49BCE
:01075C00227A
:0D000B00758171120779E58260030200061D
:10075D0020F71430F6148883A88220F507E6A883C5
:10076D0075830022E280F7E49322E0227582002255
:00000001FF
